:020000040800F2
:10000000E0110020F90E00087102000873020008D8
:10001000770200087B0200087F0200080000000051
:100020000000000000000000000000008302000843
:10003000850200080000000087020008890200080D
:10004000130F0008130F0008130F0008130F000808
:10005000130F0008130F0008130F0008130F0008F8
:10006000130F0008130F0008130F0008130F0008E8
:10007000130F0008130F0008130F0008130F0008D8
:10008000130F0008130F0008130F0008130F0008C8
:10009000130F0008130F0008130F0008130F0008B8
:1000A000130F0008130F0008130F0008130F0008A8
:1000B00011020008130F0008130F0008130F0008A7
:1000C000130F0008130F0008130F0008130F000888
:1000D000130F0008590D0008130F0008130F000834
:1000E000130F0008130F0008130F0008130F000868
:1000F000130F0008130F0008130F0008130F000858
:10010000130F0008130F0008130F0008130F000847
:10011000130F0008130F0008130F0008130F000837
:10012000130F0008130F0008130F0008130F000827
:1001300000F002F800F03AF80AA090E8000C8244BF
:100140008344AAF10107DA4501D100F02FF8AFF29C
:10015000090EBAE80F0013F0010F18BFFB1A43F0A5
:1001600001031847A03F0000C03F0000103A24BF21
:1001700078C878C1FAD8520724BF30C830C144BF0C
:1001800004680C607047000000230024002500264E
:10019000103A28BF78C1FBD8520728BF30C148BFEA
:1001A0000B6070471FB51FBD10B510BD03F0F4F80C
:1001B0001146FFF7F7FF00F009F803F012F903B456
:1001C000FFF7F2FF03BC00F069FD000001210846C3
:1001D00001F0CEF90121042001F0CAF901210846FD
:1001E00001F0D3F900F046FD00F0DAFC00F042FD2A
:1001F0004FF4165000F061FD4FF4FA7000F00DFD61
:1002000000F056FE00F032F901E000F0C8F9FCE71A
:1002100010B50121880702F0B3FD11480088FF28BE
:1002200011DC042000F04AFE0E4908600846006810
:100230000D490B4A128841F8220009480088401CE9
:10024000074908800AE000214FF0804002F0BEFA22
:1002500000200349088001200449087010BD0000F7
:100260000200002004000020B40400200000002050
:10027000704700BFFEE700BFFEE700BFFEE700BF1C
:10028000FEE7704770477047704700000CB50020CC
:10029000019000906C48006840F480306A49086022
:1002A00000BF6948006800F4003000900198401CCD
:1002B0000190009818B90198B0F5A06FF1D162488B
:1002C000006800F4003010B10120009001E000202F
:1002D00000900098012843D15C48006840F010006D
:1002E0005A4908600846006820F003000860084684
:1002F000006840F002000860534840685249486076
:100300000846406848600846406840F4806048609D
:100310000846406820F47C1048600846406840F475
:10032000E81048600846006840F08070086000BF30
:100330004548006800F000700028F9D04248406845
:1003400020F00300404948600846406840F0020041
:10035000486000BF3C48406800F00C000828F9D114
:100360000CBD10B5FFF792FF10BD10B53648006800
:1003700040F00100344908600846406834490840AC
:100380003149486008460068324908402E490860F3
:100390000846006820F4802008600846406820F481
:1003A000FE0048604FF41F008860FFF7DAFF4FF04F
:1003B00000602949086010BD10B50021002000220E
:1003C000214B5B6803F00C0121B1042906D00829F8
:1003D00028D107E0214B224C236027E01F4B204C03
:1003E000236023E0184B5B6803F47010164B5B68C6
:1003F00003F48032022303EB904022B9194B4343AC
:10040000174C23600DE0104B5B6803F4003323B1FD
:10041000144B4343124C236003E0104B4343104CF6
:10042000236003E00D4B0E4C236000BF00BF064B62
:100430005B68C3F303130C4CE15C094B1B68CB40B6
:10044000074C236010BD0000001002400020024055
:100450000000FFF8FFFFF6FE08ED00E000127A0052
:100460000C00002000093D001000002010B5002401
:1004700000BF0CE0002000F021FDFE49096808449F
:10048000FC4908600A2000F0C8FB601CC4B2322C92
:10049000F0DBF8480068322190FBF1F0F549086084
:1004A00010BD2DE9F04F89B0002473E0F24830F818
:1004B00024000FFA80F9F04850F824004FEA204A4F
:1004C000484603F0C5FC4FF08741049003F0D8FC88
:1004D000059003F051FB0022E84BCDE9060102F044
:1004E000E1FF074602F0ACFF0546504603F0B0FCC2
:1004F0004FF08741049003F0C3FC059003F03CFBF0
:1005000007460022DD4B02F0CDFFCDE9060102F0E7
:1005100097FF06463146304603F0B2FC294602906A
:10052000284603F0ADFC0190029903F051FB0390C3
:1005300003F022FBCDE9040102F05CFF0022D04B66
:10054000CDE9060102F0AEFF074602F079FF8346CF
:100550007CB9584603F010FB0022C84BCDE90601D8
:1005600003F026F9074603F0F5F8C64941F82400E0
:100570000EE0584603F000FB07460022C24B03F092
:1005800017F9CDE9060103F0E5F8BE4941F824006A
:10059000601C84B2802C89DB09B0BDE8F08F70B597
:1005A000BA48007800287DD00020B84908704FF480
:1005B0008072B749B04802F0E7FBFFF772FF0121F4
:1005C000880702F003F9AF488088AE4909890844DA
:1005D000AC4989890844AF490880AA48008AA949DA
:1005E000898A0844A749098B0844A649898B08448D
:1005F000A9490880A348008CA249898C0844A749CE
:100600000880A048008D9F49898D0844A44908802E
:100610009C48008E9B49898E08449A49098F08445A
:100620009849898F08449749B1F840100844954982
:10063000B1F8441008449349B1F84810084491496E
:10064000B1F84C1008448F49B1F8501008448D4956
:10065000B1F8541008448B49B1F85810084489493E
:10066000B1F85C1008448749B1F860100844854926
:10067000B1F8641008448B4908808248B0F86800DB
:100680008049B1F86C1008447E49B1F870100844F4
:100690007C49B1F8741008447A49B1F878100844DC
:1006A000784900E005E2B1F87C1008447549B1F8DA
:1006B000801008447349B1F8841008447149B1F8B6
:1006C000881008446F49B1F88C1008446D49B1F89E
:1006D000901008446B49B1F8941008446949B1F886
:1006E000981008446749B1F89C1008446E49088086
:1006F0006448B0F8A0006349B1F8A4100844614907
:10070000B1F8A81008445F49B1F8AC1008445D493D
:10071000B1F8B01008445B49B1F8B4100844594925
:10072000B1F8B81008445749B1F8BC10084455490D
:10073000B1F8C01008445349B1F8C41008445149F5
:10074000B1F8C81008444F49B1F8CC1008444D49DD
:10075000B1F8D01008444B49B1F8D41008444949C5
:10076000B1F8D81008444749B1F8DC1008444549AD
:10077000B1F8E01008444349B1F8E4100844414995
:10078000B1F8E81008443F49B1F8EC100844474973
:1007900008803C48B0F8F0003A49B1F8F410084439
:1007A0003849B1F8F81008443649B1F8FC1008444B
:1007B0003449B1F8001108443249B1F80411084431
:1007C0003049B1F8081108442E49B1F80C11084419
:1007D0002C49B1F8101108442A49B1F81411084401
:1007E0002849B1F8181108442649B1F81C110844E9
:1007F0002449B1F8201108442249B1F824110844D1
:100800002049B1F8281108441E49B1F82C110844B8
:100810001C49B1F8301108441A49B1F834110844A0
:100820001849B1F8381108441649B1F83C11084488
:100830001F490880194800881949098808441D493A
:100840000880002407E01C49601C31F8100021F8E2
:100850001400601CC4B2092CF5DB16480088164948
:1008600048824FF6FF70154908800020144908801F
:10087000002442E068000020B40000200000E040B6
:1008800000007040B40800200000F040000000208C
:10089000B4040020220000202400002026000020B4
:1008A000280000202A0000202C0000202E0000201C
:1008B00030000020340000208C0000203800002090
:1008C00036000020A14830F81400A1490988884268
:1008D00005DA9E4830F814009D4908800BE09B48DB
:1008E00030F814009B490988884204DD974830F8A5
:1008F000140098490880601CC4B20A2CE2DB9649B7
:100900000988934A1288891A64225143914A1288AD
:100910008F4B1B88D21A91FBF2F1904A12788818FB
:1009200000EBD071C1F347018C4A11708C480088EC
:100930008C49098808448C490880002407E08B49C9
:10094000601C31F8100021F81400601CC4B2092C9E
:10095000F5DB85480088854948824FF6FF70844959
:10096000088000208349088000241AE07F4830F87E
:1009700014007F490988884205DA7C4830F8140061
:100980007B4908800BE0794830F8140079490988E0
:10099000884204DD754830F8140076490880601CF0
:1009A000C4B20A2CE2DB70490988714A1288891A9C
:1009B000642251436F4A12886D4B1B88D21A91FBF7
:1009C000F2F16D4A1278881800EBD071C1F347013B
:1009D000694A1170694800880012694908726748BD
:1009E00000784872674800880012C872654800782D
:1009F0000873654800880012887363480078C873DC
:100A0000624800880012487460480078887454482E
:100A100000880012087552480078487551480088CF
:100A20000012C8754F4800780876594800880012AF
:100A3000887657480078C87656480088001248776C
:100A40005448007888774548007881F8200010469F
:100A5000007881F8220000204F490880002409E036
:100A60004749E01C085C4C49098808444A49088009
:100A7000601CC4B2202CF3DB47480078C043C0B2EE
:100A800045490880084600783D4981F82300002543
:100A90000DE000BF4021414800F078FF0028F9D068
:100AA0003748415D3D4800F003FF681C85B2242DA6
:100AB000EFDB70BD2DE9F04781460F4690461C469E
:100AC000089E002020603060012517E0BD420BDB4E
:100AD000454509DC59F8250003F0BAF9824621683A
:100AE00003F076F8206008E059F8250003F0B0F92B
:100AF0008246316803F06CF830606D1C802DE5DBB8
:100B0000A8EB0701481C03F0A3F982465146206870
:100B100003F0C0F82060A8EB0701C1F17F0003F0EB
:100B200097F982465146306803F0B4F83060BDE86A
:100B3000F08770B504464FF07E552946204603F0F5
:100B4000A9F8064603F068F970BD70478C000020D4
:100B50003800002036000020340000203200002041
:100B60002A0000202C0000203A000020A0000020D5
:100B70003E0000203C000020330000202200002026
:100B80004100002024000020260000202800002032
:100B90002E000020300000202000002000380140FE
:100BA00010B56FF0040000F09AFF2E4800682E493F
:100BB000B0FBF1F02D4908700846007800EB4001C9
:100BC000C1EBC0104FF6FF7101EAC0002849088050
:100BD00010BD0146254A12784A434FF0E0235A617E
:100BE00000229A611A46126942F001021A6100BF9E
:100BF0004FF0E022106900F001021AB100F48032D7
:100C0000002AF5D04FF0E022126922F001024FF0E5
:100C1000E0231A6100229A6170470146144A128843
:100C20004A434FF0E0235A6100229A611A46126942
:100C300042F001021A6100BF4FF0E022106900F09B
:100C400001021AB100F48032002AF5D04FF0E02200
:100C5000126922F001024FF0E0231A6100229A612A
:100C6000704700000C00002000127A006C00002089
:100C70006E00002008B54FF4C06000F0E1FE1C20BB
:100C80008DF8000000208DF8010001208DF8020091
:100C90008DF80300684600F0D8FE08BD014600BF8D
:100CA000704700BF4B4A128802F04002002AF9D078
:100CB000C2B2484B1B1D1A80704710B586B004465F
:100CC000012144F2040000F053FC424800F0B4FC5F
:100CD0004FF40070ADF8140003208DF816001820B2
:100CE0008DF8170005A93C4800F086F94FF48060A4
:100CF000ADF8140004208DF8170005A9364800F05F
:100D00007BF925208DF8000003208DF801008DF877
:100D1000020001208DF80300684600F096FE019461
:100D20000020ADF80800ADF80A00ADF80C00ADF8F1
:100D300010000C20ADF80E0001A9264800F0BFFC01
:100D4000002240F22551234800F051FD01212148A5
:100D500000F041FD06B010BD10B540F225511D4810
:100D600000F02AFE10B31B4800F0A6FDC4B21B48D9
:100D7000008800F40040C8B91848008800F480409A
:100D800060B10A2C03D000201449088020E01348E9
:100D9000008840F400401149088019E00D2C06D16C
:100DA0000E48008840F480400C49088010E00B4851
:100DB0000088C0F30D000A490C5408480088401C04
:100DC0000649088008460088C72801DD0020088001
:100DD00010BD0000003801400008014074000020F0
:100DE000B40A00200EB50121880701F0C9FF40F6C2
:100DF0009F70ADF804004720ADF800000020ADF86A
:100E00000600ADF8020069464FF0804001F082F91B
:100E100001221146900701F0F4FC0121880701F03E
:100E2000D5FC0EBD00B587B001214FF4017000F074
:100E30009FFB4FF4004000F0FFFA1020ADF80400D3
:100E400000208DF8070001A9294800F0D5F82948AD
:100E500000F064FE002002908DF80C008DF80D006B
:100E60004FF4602004900020059001208DF81800B8
:100E700002A9204800F079FE01211E4800F0A1FEE1
:100E80001C4800F0C0FE00BF1A4800F0C1FE002858
:100E9000FAD1184800F0C6FE00BF164800F0C7FEA1
:100EA0000028FAD10121134800F0CBFE07B000BDA5
:100EB00010B5FFF7B7FFFFF795FF10BD70B50446FB
:100EC00000250723012221460A4800F0E6FE012101
:100ED000084800F0B6FE00BF0221064801F022F8E3
:100EE0000028F9D0034800F03FFF0546284670BDB2
:100EF0000008014000240140094880470948004794
:100F0000FEE7FEE7FEE7FEE7FEE7FEE7FEE7FEE7B9
:100F1000FEE7FEE704480549054A064B7047000016
:100F20006B03000831010008E00B0020E0110020F5
:100F3000E00D0020E00D002010B50446CC488442AE
:100F400008D10121042000F02DFB0021042000F035
:100F500029FB46E0C748844208D10121082000F05F
:100F600021FB0021082000F01DFB3AE0C24884422A
:100F700008D10121102000F015FB0021102000F005
:100F800011FB2EE0BD48844208D10121202000F051
:100F900009FB0021202000F005FB22E0B848844234
:100FA00008D10121402000F0FDFA0021402000F08E
:100FB000F9FA16E0B348844208D10121802000F0FC
:100FC000F1FA0021802000F0EDFA0AE0AE488442F8
:100FD00007D10121801500F0E5FA0021A01500F0ED
:100FE000E1FA10BD10B50121084600F0DBFA00213E
:100FF000012000F0D7FA10BD2DE9F041024600258E
:101000000026002000230024002791F803C00CF0E4
:101010000F0591F803C00CF0100CBCF1000F03D0C9
:1010200091F802C04CEA050591F800C0BCF1000F30
:1010300031D0146800202BE04FF0010C0CFA00F3C3
:10104000B1F800C00CEA03069E4220D183004FF0A5
:101050000F0C0CFA03F7BC4305FA03FC4CEA04043A
:1010600091F803C0BCF1280F06D14FF0010C0CFA27
:1010700000FCC2F814C00AE091F803C0BCF1480FAC
:1010800005D14FF0010C0CFA00FCC2F810C0401C56
:101090000828D1D31460B1F800C0BCF1FF0F34DDD3
:1010A000546800202EE000F1080C4FF0010808FA07
:1010B0000CF3B1F800C00CEA03069E4221D1830074
:1010C0004FF00F0C0CFA03F7BC4305FA03FC4CEA93
:1010D000040491F803C0BCF1280F05D100F1080CFD
:1010E00008FA0CF8C2F8148091F803C0BCF1480F5C
:1010F00007D100F1080C4FF0010808FA0CF8C2F80B
:101100001080401C0828CED35460BDE8F0814FF613
:10111000FF710180022181700421C1707047024675
:10112000002093680B400BB1012000E000207047C5
:101130000146886880B2704702460020D3680B40A1
:101140000BB1012000E0002070470146C86880B262
:10115000704701617047416170470AB1016100E069
:1011600041617047C16070474FF480320A43826129
:101170008161826182698269704702460020434B27
:1011800018684FF68073184040EA021008433F4B3E
:10119000186070473E49C8617047F0B50A460023A1
:1011A00000240021002500F00046B6F1004F02D1D6
:1011B000364EF16901E0354E7168C0F3034583B2E4
:1011C00000F44016B6F5401F08D121F070612F4E93
:1011D000766826F070662D4F7E6012E000F480166F
:1011E000B6F5801F06D1032606FA05F4A14341F0A7
:1011F000706106E0460D360103FA06F6B14341F090
:10120000706122B1460D360103FA06F6314300F053
:101210000046B6F1004F02D11C4EF16101E01B4EB9
:101220007160F0BD30B500228B071C0F0F2303FA4D
:1012300004F2164B08338C1053F824309343134CAC
:1012400008348D1044F8253023468C1053F8243090
:101250008C07240F00FA04F423430C4C08348D103F
:1012600044F8253030BD0A49DC3108607047000081
:1012700000080140000C0140001001400014014032
:1012800000180140001C0140002001400000014006
:1012900000002042DF48006840F00100DD4908609E
:1012A00008464068DC490840DA494860084600685A
:1012B000DA490840D74908600846006820F48020D1
:1012C00008600846406820F4FE0048604FF41F00A4
:1012D00088607047CF49096821F48031CD4A116098
:1012E0001146096821F480211160B0F5803F03D0D8
:1012F000B0F5802F0ED106E0C649096841F480316F
:10130000C44A116007E0C349096841F4A021C14AF9
:10131000116000E000BF00BF704710B50146002219
:10132000002300204A11012A02D1BA4C236806E0AA
:10133000022A02D1B74C236A01E0B64C636A01F07D
:101340001F02012494401C400CB1012000E0002049
:1013500010BD38B5002000900024002500BF3120CA
:10136000FFF7DBFF05460098401C00900098B0F5A1
:10137000A06F01D0002DF2D03120FFF7CEFF08B1D1
:10138000012400E00024204638BD01460020A14A87
:10139000106820F0F80040EAC10010607047A049D2
:1013A00008607047024600209A4B586820F47C1071
:1013B00042EA01031843974B586070479849086602
:1013C000704701460020934A506820F0030008430C
:1013D000506070478F48406800F00C00704701462D
:1013E00000208C4A506820F0F0000843506070479D
:1013F00001460020874A506820F4E06008435060AE
:10140000704701460020834A506820F4605040EA4B
:10141000C1005060704729B17E4A527A02437D4B29
:101420005A7204E07B4A527A82437A4B5A7270476E
:101430007B49D8310860704701460020754A5068E2
:1014400020F440400843506070470021714A203228
:101450001170704A82F82010012802D004280AD1A5
:1014600004E001216B4A2032117005E00521694A30
:101470002032117000E000BF00BF7047694908606A
:1014800070476449096A0143624A116270476549BD
:1014900044390860704730B5002100220024002341
:1014A0005C4D6D6805F00C0121B1042905D00829B7
:1014B00023D105E05C4D056022E05B4D05601FE037
:1014C000544D6D6805F47012524D6D6805F480340A
:1014D000022505EB92421CB9544D554305600BE0C3
:1014E0004C4D6D6805F400351DB1504D55430560F8
:1014F00002E04D4D5543056002E04B4D056000BFD5
:1015000000BF444D6D6805F0F0010909484D6B5C62
:101510000568DD4045603F4D6D6805F4E061090AEE
:10152000434D6B5C4568DD4085603A4D6D6805F460
:101530006051C90A3E4D6B5C4568DD40C560354D64
:101540006D6805F44041890B3A4D6B5CC568B5FB8D
:10155000F3F5056130BD29B12E4A526902432D4B86
:101560005A6104E02B4A526982432A4B5A61704700
:1015700029B1284A92690243264B9A6104E0254A20
:1015800092698243234B9A61704729B1214AD269FB
:101590000243204BDA6104E01E4AD26982431D4BAC
:1015A000DA61704729B11B4AD2680243194BDA60ED
:1015B00004E0184AD2688243164BDA60704729B1BA
:1015C000144A12690243134B1A6104E0114A12696A
:1015D0008243104B1A6170471249403908607047C6
:1015E0000F49C86470470B49C87170470948406A81
:1015F00040F0807007494862704701460020054A64
:1016000092680A400AB1012000E0002070470149B9
:1016100088727047001002400000FFF8FFFFF6FEDE
:10162000000042428004424200127A0000093D005C
:10163000760000208600002010B50446FB48844256
:1016400009D101218803FFF7ADFF00214FF480404D
:10165000FFF7A8FF32E0F648844209D1012148048F
:10166000FFF7ADFF00214FF40030FFF7A8FF25E0A2
:10167000F048844209D101218804FFF7A0FF00212E
:101680004FF48020FFF79BFF18E0EB48844209D11C
:101690000121C804FFF793FF00214FF40020FFF75A
:1016A0008EFF0BE0E548844208D101210805FFF7D1
:1016B00086FF00214FF48010FFF781FF10BD2DE958
:1016C000F04786B005460E460024A24600BFA1465C
:1016D0000027B08900B100BF2F462C8A4CF6FF705E
:1016E0000440F08804432C82AC894EF6F310044089
:1016F000B08831890843718908430443AC81AC8ABE
:101700004FF6FF400440B0890443AC8201A8FFF7C4
:10171000C2FEC648874202D1DDF810A001E0DDF824
:101720000CA0A88900F4004040B10AEBCA0000EB0D
:101730000A1031684900B0FBF1F807E00AEBCA0073
:1017400000EB0A1031688900B0FBF1F86420B8FBA7
:10175000F0F004012009642101FB1089A88900F43C
:10176000004040B1322000EBC900B0FBF1F000F0C6
:101770000700044308E0322000EB09106421B0FBAD
:10178000F1F000F00F0004432C8106B0BDE8F087B3
:101790004FF41651016000218180C18001810C212C
:1017A000418100218181704710B502460020108AD6
:1017B0004FF2FF0318400B884C8823438C88234347
:1017C000CC8823431843108210BD00210180418042
:1017D0008180C180704721B1828942F400528281A8
:1017E00004E082894DF6FF731A4082817047F0B59C
:1017F0000346002400260025002040F66A17B9425F
:1018000000D100BF1846C1F3421401F01F060127A2
:1018100007FA06F5012C01D10C3004E0022C01D1AD
:10182000103000E014301AB107682F43076002E05F
:101830000768AF430760F0BD1AB1838A0B43838208
:1018400002E0838A8B4383827047028A4FF6F073EB
:101850001A400282028A0A430282704782894FF24A
:10186000FF731A40828182890A438281704721B1C5
:10187000828942F00202828104E082894FF6FD7380
:101880001A4082817047028A4FF6DF731A40028243
:10189000028A0A430282704721B1028A42F48042DE
:1018A000028204E0028A4BF6FF731A4002827047FC
:1018B000C1F308028280704701468888C0F308009F
:1018C0007047818941F0010181817047028BD2B25A
:1018D0000283028B42EA012202837047028B02F4E8
:1018E0007F420283028B0A430283704721B1828ABE
:1018F00042F02002828204E0828A4FF6DF731A40AF
:101900008282704721B1828A42F01002828204E012
:10191000828A4FF6EF731A408282704721B1828A21
:1019200042F00802828204E0828A4FF6F7731A407E
:101930008282704721B1828942F40042828103E0B1
:101940008289C2F30E028281704721B1828A42F4F9
:101950000062828204E0828A4FF2FF731A40828220
:101960007047828A4FF6FB731A408282828A0A434A
:101970008282704721B1828A42F00202828204E0B0
:10198000828A4FF6FD731A40828270470246002019
:10199000B1F5007F00D100BF13880B400BB10120CF
:1019A00000E00020704701F40072B2F5007F00D122
:1019B00000BFCA430280704770B50246002400236E
:1019C0000025002040F66A16B14200D100BFC1F3E5
:1019D000421501F01F03012606FA03F3012D02D17F
:1019E0009689334006E0022D02D1168A334001E089
:1019F000968A33400C12012606FA04F41688344005
:101A000013B10CB1012000E0002070BD10B5002220
:101A1000002340F66A14A14200D100BF0A1201243B
:101A20009440A3B2DC43048010BD000000380140A4
:101A30000044004000480040004C0040005000407E
:101A400031490143314A1160704770B500210023CC
:101A50000F22C47804B32D4C246804F4E064C4F568
:101A6000E064210AC1F10403CA40447804FA03F196
:101A70008478144021430901254C0678A155047847
:101A800004F01F050124AC4005786D11AD0005F18F
:101A9000E025C5F8004109E0047804F01F050124A1
:101AA000AC401C4D0678761145F8264070BD1A4AA8
:101AB0000A400243154B1B1F1A60704739B1134A85
:101AC000121D12680243114B1B1D1A6006E00F4ADB
:101AD000121D126882430D4B1B1D1A6070470428AB
:101AE00008D14FF0E021096941F004014FF0E022F4
:101AF000116107E04FF0E021096921F004014FF086
:101B0000E0221161704700000000FA050CED00E0D2
:101B100000E400E080E100E080FFFF1F10B5044614
:101B2000FA48844208D101214015FFF73BFD00210E
:101B30006015FFF737FD17E0F548844208D1012111
:101B40000015FFF72FFD00212015FFF72BFD0BE0FF
:101B5000F048844208D10121C803FFF723FD00218A
:101B60004FF40040FFF71EFD10BD30B502460020C7
:101B700000235068E84C20400D790C6844EA0524A5
:101B8000204350609068E54C2040D1E902542C433A
:101B90004D7944EA450420439060D06A20F47000F7
:101BA0000C7C641EE4B2234340EA0350D06230BD93
:101BB00000210160017141718160C16001210174E6
:101BC000704721B1826842F00102826003E08268BE
:101BD00022F001028260704721B1826842F4807273
:101BE000826003E0826822F480728260704710B5E0
:101BF0000023CBB21AB144681C43446002E044683D
:101C00009C43446010BD816841F0080181607047C9
:101C1000014600208A6802F008020AB1012000E0B3
:101C200000207047816841F00401816070470146DF
:101C300000208A6802F004020AB1012000E00020BE
:101C4000704721B1826842F4A002826003E082689A
:101C500022F4A00282607047014600208A6802F4E4
:101C600080020AB1012000E00020704710B50A464A
:101C700000210023416821F46041531E41EA4331B1
:101C8000416010BD21B1426842F40062426003E04D
:101C9000426822F4006242607047F0B504460D4687
:101CA00000200021092D11DDE068A5F10A0606EBF0
:101CB0004607072606FA07F18843A5F10A0606EB50
:101CC000460603FA06F10843E0600CE0206905EBE4
:101CD0004507072606FA07F1884305EB450603FA90
:101CE00006F108432061072A0FDA606B561E06EBE7
:101CF00086071F2606FA07F18843561E06EB86065E
:101D000005FA06F10843606322E00D2A0FDA206B22
:101D1000D61F06EB86071F2606FA07F18843D61F53
:101D200006EB860605FA06F10843206310E0E06A38
:101D3000A2F10D0606EB86071F2606FA07F1884377
:101D4000A2F10D0606EB860605FA06F10843E062ED
:101D5000F0BD21B1826842F48012826003E08268A3
:101D600022F48012826070470146C86C80B27047CE
:101D700066484C300068704721B1426842F4806286
:101D8000426003E0426822F480624260704721B101
:101D9000426842F48052426003E0426822F480527A
:101DA000426070470A460021816821F4E0411143F6
:101DB0008160704721B1826842F40042826003E092
:101DC000826822F400428260704721B1826842F446
:101DD0000212826003E0826822F40212826070477D
:101DE000014600208A6802F400120AB1012000E0D6
:101DF00000207047F0B5044615460020002200265A
:101E0000092911DDE068A1F10A0707EB470C072754
:101E100007FA0CF29043A1F10A0707EB470703FA10
:101E200007F21043E0600CE0206901EB410C07274A
:101E300007FA0CF2904301EB410703FA07F2104353
:101E40002061A06BC0F30156EF1C06F1010CA7EB5B
:101E50000C0707EB870C1F2707FA0CF29043EF1CC7
:101E600006F1010CA7EB0C0707EB870701FA07F255
:101E70001043A063F0BD10B50A4600210023816B1A
:101E800021F44011531E41EA0351816310BD08B58E
:101E9000002300930090009B0B440093009B1A606A
:101EA00008BD08B5024600200090009201F128000C
:101EB000009B184400900098006880B208BD0A4654
:101EC00000214168164B194011434160704741623F
:101ED000826270470A460021416821F01F011143C8
:101EE0004160704740B109490831096841F4000177
:101EF000064A0832116007E004490831096821F4F4
:101F00000001024A083211607047000000240140BD
:101F100000280140003C0140FFFEF0FFFDF7F1FF0B
:101F2000FFFD3FFF0246002013680B400BB101206C
:101F300000E000207047CA430260704770B5024657
:101F40000020002300240B125568CEB205EA0604D7
:101F500015681D4015B10CB1012000E0002070BDD6
:101F600000220A12D34303607047000010B50446F4
:101F7000FE48844208D10121C014FFF713FB002161
:101F8000E014FFF70FFBC4E0B4F1804F08D101214A
:101F90000846FFF714FB00210120FFF710FBB8E013
:101FA000F348844208D101210220FFF708FB0021F9
:101FB0000220FFF704FBACE0EE48844208D1012187
:101FC0000420FFF7FCFA00210420FFF7F8FAA0E054
:101FD000E948844208D101210820FFF7F0FA0021E6
:101FE0000820FFF7ECFA94E0E448844208D101218C
:101FF0001020FFF7E4FA00211020FFF7E0FA88E054
:10200000DF48844208D101212020FFF7D8FA0021BF
:102010002020FFF7D4FA7CE0DA48844208D101217D
:102020004014FFF7BFFA00216014FFF7BBFA70E01D
:10203000D548844209D10121C804FFF7B3FA002131
:102040004FF40020FFF7AEFA63E0D048844209D194
:1020500001210805FFF7A6FA00214FF48010FFF7D1
:10206000A1FA56E0CA48844209D101214805FFF788
:1020700099FA00214FF40010FFF794FA49E0C5489F
:10208000844208D101214020FFF799FA0021402025
:10209000FFF795FA3DE0C048844208D10121802035
:1020A000FFF78DFA00218020FFF789FA31E0BB4865
:1020B000844208D101218015FFF781FA0021A01583
:1020C000FFF77DFA25E0B648844209D101210804D2
:1020D000FFF768FA00214FF48030FFF763FA18E049
:1020E000B048844209D101214804FFF75BFA00217E
:1020F0004FF40030FFF756FA0BE0AB48844208D1AA
:1021000001218804FFF74EFA00214FF48020FFF7E9
:1021100049FA10BD00220288944B98420ED0994B88
:1021200098420BD0B0F1804F08D0914B984205D027
:10213000904B984202D0904B984204D14FF68F7347
:102140001A404B881A438D4B984207D08C4B9842CB
:1021500004D04FF6FF431A40CB881A4302808B8885
:1021600083850B880385814B98420BD0854B984221
:1021700008D08B4B984205D08A4B984202D08A4BAC
:10218000984201D10B7A038601238382704770B590
:10219000002400220023058C4FF6FE76354005848E
:1021A000028C8388048B4FF68F752C40B51E2C4013
:1021B0000D882C43751E2A400D892A434D882A43D9
:1021C0006A4DA8420BD06F4DA84208D0744DA8426A
:1021D00005D0744DA84202D0734DA84213D14FF6DA
:1021E000F7752A404D892A434FF6FB752A408D88A2
:1021F0002A434FF6FF652B404FF6FF552B408D8944
:102200002B43CD892B4383800483CD88858602842C
:1022100070BD70B5002400220023058C4FF6EF76C8
:1022200035400584028C8388048B48F6FF752C406A
:102230004FF6FF452C400D884FF6FF7606EA052540
:102240002C434FF6DF752A400D8906EA05152A430F
:102250004D8806EA05152A43444DA84202D0494D4F
:10226000A8421DD14FF67F752A404D894FF6FF7663
:1022700006EA05152A434FF6BF752A408D8806EAFF
:1022800005152A434FF6FF352B404FF2FF752B40C3
:102290008D8906EA85052B43CD8906EA85052B4302
:1022A00083800483CD880587028470BD70B50024C7
:1022B00000220023058C4FF6FF6635400584028C12
:1022C0008388848B4FF68F752C404FF6FC752C401D
:1022D0000D882C434FF6FF552A400D894FF6FF76A7
:1022E00006EA05252A434D8806EA05252A431F4D9F
:1022F000A84202D0234DA8421DD14FF2FF752A40BB
:102300004D894FF6FF7606EA05252A434FF6FF353D
:102310002A408D8806EA05252A434EF6FF752B4094
:102320004DF6FF752B408D8906EA05152B43CD89A7
:1023300006EA05152B4383808483CD888587028434
:1023400070BD70B5002200230024058C4EF6FF7688
:1023500035400584038C8488828B48F6FF752A40BB
:102360004FF6FF452A400D8820E00000002C014078
:102370000004004000080040000C00400010004035
:102380000014004000340140004C01400050014066
:102390000054014000180040001C00400020004094
:1023A0000040014000440140004801404FF6FF76E4
:1023B00006EA05252A434DF6FF752B400D8906EAEE
:1023C00005352B434D8806EA05352B43FA4DA842C7
:1023D00002D0FA4DA84208D14BF6FF752C408D89EA
:1023E0004FF6FF7606EA85152C4384808283CD88DC
:1023F000A0F84050038470BD828B4FF2FF331A4027
:102400008283828B4FF6FF7303EA01231A43828390
:102410007047F0B50C461546002200210026078CB7
:102420004EF6FF7C07EA0C070784828B018C4FF67F
:10243000FF7707EA043640F6FF473A404FF6FF774A
:1024400007EA05273A434FF6FF7707EA03373A438F
:10245000D94FB8420ED0D94FB8420BD0B0F1804F0F
:1024600008D0D74FB84205D0D64FB84202D0D64F89
:10247000B84206D14DF6FF77394046F480573943CC
:1024800005E047F6FF57394044F4805739438283CB
:102490000184F0BD828B4FF6F3731A408283828BE6
:1024A0000A4382837047F0B50C461546002200218E
:1024B0000026078C4FF6FF6C07EA0C070784828B17
:1024C000018C4FF6FF7707EA04264FF60C773A4067
:1024D0004FF6FF7707EA03172F433A43B64FB84248
:1024E0000ED0B64FB8420BD0B0F1804F08D0B44FE9
:1024F000B84205D0B34FB84202D0B34FB84206D16C
:102500004FF6FF57394046F48077394305E04FF2E4
:10251000FF57394044F48077394382830184F0BD0A
:10252000028B4FF2FF331A400283028B4FF6FF7388
:1025300003EA01231A4302837047F0B50C4615469F
:10254000002200210026078C4FF6EF7C07EA0C07DB
:102550000784028B018C4FF6FF7707EA041640F6DA
:10256000FF473A404FF6FF7707EA03373A434FF603
:10257000FF7707EA05273A438F4FB8420ED08F4FB7
:10258000B8420BD0B0F1804F08D08D4FB84205D083
:102590008C4FB84202D08C4FB84206D14FF6DF774D
:1025A000394046F01007394305E04FF65F77394070
:1025B00044F01007394302830184F0BD028B4FF6CB
:1025C000F3731A400283028B0A4302837047F0B50B
:1025D0000C46154600220021068C4FF6FE773E4041
:1025E0000684028B018C4FF60C7632407E1C06EA84
:1025F00003162E433243704EB0420ED06F4EB0429F
:102600000BD0B0F1804F08D06D4EB04205D06D4E6A
:10261000B04202D06C4EB04206D14FF6FD7631404A
:1026200044F00106314305E04FF6F576314044F0C1
:102630000106314302830184F0BD70B505460C46A6
:102640005D4885420ED05D4885420BD0B5F1804F84
:1026500008D05B48854205D05A48854202D05A4886
:10266000854200D100E000BF208850B92389A288AC
:1026700061882846FFF7ABFFE1882846FFF79EFFF9
:1026800025E0208804280AD12389A2886188284669
:10269000FFF753FFE1882846FFF742FF17E0208845
:1026A00008280AD12389A28861882846FFF7FBFE03
:1026B000E1882846FFF7EEFE09E02389A2886188B9
:1026C0002846FFF7A6FEE1882846FFF795FE70BD75
:1026D0002DE9F04105460C4600260127608808B91F
:1026E000022600E00026A088012801D1022700E090
:1026F00001272088A0B92389A28861882846FFF78E
:1027000066FFE1882846FFF759FF23893A4631469C
:102710002846FFF712FFE1882846FFF701FF13E084
:102720002389A28861882846FFF707FFE1882846A9
:10273000FFF7F6FE23893A4631462846FFF747FF62
:10274000E1882846FFF73AFFBDE8F0810A884B8808
:102750001A438B881A43CB881A430B891A434B8937
:102760001A438B891A43A0F8442070474FF6FF7133
:10277000818000210180C180418001727047002169
:10278000018041808180C180018141818181C1813D
:102790007047002101804180012181800021C1809A
:1027A000018170470021018041808180C1800181C9
:1027B0004181818170470000002C014000340140BC
:1027C0000004004000080040000C004021B10288D5
:1027D00042F00102028004E002884FF6FE731A40C4
:1027E0000280704731B1B0F8442042F40042A0F8B2
:1027F000442005E0B0F84420C2F30E02A0F84420C3
:1028000070471AB183890B43838102E083898B432C
:10281000838170478182704741EA0203A0F8483003
:1028200070471AB183890B43838102E083898B430C
:102830008381704701894FF6F8721140018170471A
:102840000A46002101894FF68F7319401143018117
:10285000704730B504460D4629462046FFF7F0FF85
:10286000208940F00700208130BD2DE9F041044669
:102870000D4616461F46602D06D13B4601223146C5
:102880002046FFF75AFE05E03B460122314620462E
:10289000FFF79DFE29462046FFF7D2FF208940F032
:1028A00007002081BDE8F08130B50C460021018988
:1028B000C9B24FF6FF7505EA0325154325432943A1
:1028C000018130BD2DE9F04105460E461746984678
:1028D000002443463A4631462846FFF7E5FF2C8957
:1028E0004FF6F870044044F007044FF68F70044030
:1028F00044F070042C81BDE8F081F0B504460D462B
:1029000016461F463B46324629462046FFF7CCFF77
:10291000208940F480402081F0BD0185828270478B
:102920000A46002101884FF68F7319401143018038
:102930007047F0B50C4615461E46002100220023C4
:102940000189028B038C4FF6F877394021434FF60B
:10295000FC473A4040F201173A434FF6DD773B40DF
:102960004FF6FF7707EA06172F433B4301810283A7
:102970000384F0BD0A460021018B4FF68F73194086
:102980001143018370470A460021018B48F6FF730B
:1029900019404FF6FF7303EA02231943018370477E
:1029A0000A460021818B4FF68F73194011438183B2
:1029B00070470A460021818B48F6FF7319404FF695
:1029C000FF7303EA022319438183704721B1028810
:1029D00042F08002028004E002884FF67F731A40C2
:1029E0000280704721B1828842F00402828004E0B4
:1029F00082884FF6FB731A408280704721B182882B
:102A000042F00802828004E082884FF6F7731A4091
:102A10008280704721B1828842F00102828004E006
:102A200082884FF6FE731A40828070470A46002162
:102A3000018B4FF6F77319401143018370470A4623
:102A40000021018B4FF2FF7319404FF6FF7303EA29
:102A500002231943018370470A460021818B4FF6F8
:102A6000F77319401143818370470A460021818B17
:102A70004FF2FF7319404FF6FF7303EA0223194325
:102A8000818370470A460021018B4FF6FB73194082
:102A90001143018370470A460021018B4FF6FF3333
:102AA00019404FF6FF7303EA02231943018370476D
:102AB0000A460021818B4FF6FB7319401143818335
:102AC00070470A460021818B4FF6FF3319404FF6BD
:102AD000FF7303EA02231943818370470A460021EA
:102AE000018B4FF67F7319401143018370470A46EB
:102AF0000021018BC1F30E014FF6FF7303EA02239D
:102B00001943018370470A460021818B4FF67F737A
:102B100019401143818370470A460021818BC1F31C
:102B20000E014FF6FF7303EA0223194381837047B6
:102B30000A460021018C4FF6FD73194011430184B0
:102B400070470A460021018C4FF6F7731940114374
:102B5000018470470A460021018C4FF6DF7319404B
:102B60004FF6FF7303EA02131943018470470A46C4
:102B70000021018C4FF67F7319404FF6FF7303EA73
:102B800002131943018470470A460021018C4FF655
:102B9000FF5319404FF6FF7303EA022319430184E0
:102BA00070470A460021018C4FF2FF7319404FF61F
:102BB000FF7303EA02231943018470470A46002188
:102BC000018C4DF6FF7319404FF6FF7303EA023391
:102BD00019430184704730B5002301248C40A3B20F
:102BE000048C9C430484048C02FA01F5ADB22C439E
:102BF000048430BD30B5002304248C40A3B2048C7F
:102C00009C430484048C02FA01F5ADB22C43048485
:102C100030BD70B503460020002418461830012549
:102C20008D40ACB21D8CA5431D8409B1082909D182
:102C300000EB6100056825F0700505600568154327
:102C400005600EE00D1FC5F34E052844056825F408
:102C5000E045056005684FF6FF7606EA0226354333
:102C6000056070BD21B1028842F00202028004E0DA
:102C700002884FF6FD731A400280704721B1028826
:102C800042F00402028004E002884FF6FB731A400F
:102C90000280704721B1828842F08002828004E085
:102CA00082884FF67F731A408280704702884FF601
:102CB000F7731A40028002880A43028070478288B4
:102CC0004FF68F731A40828082880A438280704751
:102CD00002894FF6F8731A40028102890A43028181
:102CE000704702894FF67F731A40028102890A43B6
:102CF0000281704781847047818570478186704763
:102D00000187704781877047A0F84010704702889C
:102D10004FF6FF431A40028002880A430280704740
:102D20000146888E70470146088F70470146888F9C
:102D300070470146B1F8400070470146888C7047E3
:102D40000146088D704702460020138A0B400BB1E4
:102D5000012000E000207047CA430282704730B56E
:102D60000246002000230024158A05EA0103958904
:102D700005EA010413B10CB1012000E0002030BDD0
:102D8000CA430282704700002DE9F04F4FF0000C5B
:102D90004FF0000301EB1C6EBEF90250BEF900407B
:102DA0000EF5807EBEF90290BEF900800EF5807EA1
:102DB000BEF90270BEF900600EF5807EBEF902B069
:102DC000BEF900A00EF5807ED044D944A8EB4A0A93
:102DD000A9EB4B0B4FEAA4044FEAA50504EBA604AC
:102DE00005EBA705A4EB6606A5EB670704EBA804B3
:102DF00005EBA905A4EB6808A5EB690906EBAB0692
:102E0000A7EBAA07A6EB6B0B07EB6A0A458020F835
:102E1000044B478020F8046BA0F8029020F8048B44
:102E2000A0F802A020F804BB03F1010393FAA3FC6D
:102E3000402BAFD1A0EB82014FF0100312090FF22B
:102E4000361000F1000006B403EB430C6144A2F518
:102E5000803202EB8332B1F90250B1F90040A1EBAC
:102E60000301B0F902B0B0F900A000F10400A5EB35
:102E7000040E0EFB0BFC0AEB4B0E05FB0ACB04FB0E
:102E80000ECAB1F90250B1F90040A1EB0301B0F94B
:102E90000290B0F9008000F10400A5EB040E0EFBD7
:102EA00009FC08EB490E05FB08C904FB0EC8B1F983
:102EB0000250B1F90040A1EB0301B0F90270B0F982
:102EC000006000F10400A5EB040E0EFB07FC06EB0E
:102ED000470E05FB06C704FB0EC6B1F90250B1F957
:102EE000004001F10001D044D944A8EB4A0AA9EB03
:102EF0004B0B4FEAA4044FEAA50504EB264405EB6F
:102F00002745A4EBE636A5EBE73704EB284405EBB1
:102F10002945A4EBE838A5EBE93906EB2B46A7EBEE
:102F20002A47A6EBEB3B07EBEA3A4D800C801944AD
:102F30004F800E801944A1F80290A1F80080194436
:102F4000A1F802A021F804BBB2F5803283DA03EBCA
:102F5000430C6144A2F101025FEA024E18BFA0EBEC
:102F60000C007FF476AF06BC4FEA830392087FF42F
:102F70006AAFBDE8F08F0040000000400000004054
:102F800000005DDD213BA3227E180000412D7EA5BF
:102F9000412D0000412D00C000405DDD82E75DDD78
:102FA000213B7EA5412D0040000000400000004074
:102FB0000000AA2A94126B39460649327C0CA811EB
:102FC0008E2349327C0CA3227E1821F77931AA2A5C
:102FD0009412A8118E235DDD213BA3227E180000F0
:102FE000412D95C6B13F461A2B1E58EE3735BEB45B
:102FF000C53EA8118E235DDD213B63A97138DF0832
:103000009A28B7CDC53E7EA5412D0000412D00C0B8
:10301000004063A92B1E21F77931BEB4C53EBEB472
:103020007C0C58EE373561AC213B95C6BAF9BAE550
:1030300071383BA737355DDD82E75DDD213B7EA53D
:10304000412D21F766D756D53F3D3BA78E23A811CA
:10305000C9CAB7CDC53E61AC7E18AA2AC1C295C601
:10306000B13FBEB47C0C00400000004000000040B6
:1030700000001E3BB504693E9201C83C2403EB35B9
:103080006409C83C24036B3946066C30060E1E3BAF
:10309000B504EB356409AA2A94126B394606493205
:1030A0007C0CAE240917AF37D607882E8D0F7E1EF5
:1030B0005D1BEB356409AA2A941224188C1F1E3458
:1030C000F10AB3269015A8118E2349327C0CA32255
:1030D0007E18140B60276C30060E7E1E5D1B71047B
:1030E000FB2A882E8D0F461A2B1EC7FD5A2E9D2CAB
:1030F0001211FE15E72021F77931AA2A9412A8119E
:103100008E2387F05334B2281314480D202602EA88
:10311000E536B3269015DF089A289CE32B39AE24B8
:1031200009177104FB2A5DDD213BA3227E180000F4
:10313000412D4ED7C53C9320EF198FFB6C2F78D1D2
:10314000153E7E1E5D1B21F77931E2CB0F3F641CDB
:10315000C61CB8F2683395C6B13F461A2B1E58EE0E
:10316000373597C1FB3F24188C1F02EAE536F0BCC7
:10317000EC3FFE15E720BAE57138A6B8853FD513B8
:103180003D2282E1DB39BEB4C53EA8118E235DDD50
:10319000213B40B1AF3D790FDA244DD9423C2EAEF0
:1031A000423C480D202656D53F3D8EAB823A140B4B
:1031B000602778D1153E63A97138DF089A28B7CD0A
:1031C000C53EB1A71236A906CE2915CA4F3F78A62B
:1031D00068337104FB2A95C6B13FBCA5763039022D
:1031E000212C38C3EC3F7EA5412D0000412D00C0AD
:1031F0000040BCA5CE29C7FD5A2EF0BCEC3F78A6F6
:1032000020268FFB6C2F09BAB13FB1A73D2257F999
:1032100076304DB74F3F63A92B1E21F77931BEB4ED
:10322000C53E8EABEF19ECF474325EB2153E2EAE95
:103230009015B8F268332DB03F3D40B1121187F0C0
:1032400053342EAE423CBEB47C0C58EE373561ACE4
:10325000213BA6B8D6072BEC1236C8AADB39F0BC46
:10326000240302EAE53663A9713897C16EFEDCE7F4
:10327000B03734A8E53695C6BAF9BAE571383BA738
:103280003735E2CB0FF59CE32B3978A6683378D13C
:1032900073F082E1DB39EDA579314ED7EDEB6DDFCF
:1032A000823A99A56C2F5DDD82E75DDD213B7EA52D
:1032B000412D9CE33AE352DBB63B99A5FB2A02EA97
:1032C00019DF4DD9423CEDA59A2887F026DB4ED771
:1032D000C53C78A6202621F766D756D53F3D3BA7AB
:1032E0008E23C7FDDFD363D3AF3D34A8E72071043D
:1032F00094D078D1153E63A92B1E140B8CCD94CF9E
:10330000723EC8AA5D1BA811C9CAB7CDC53E61AC43
:103310007E18241850C8E2CB0F3F2EAE90157E1EAB
:1033200025C615CA4F3F2DB09412AE244AC451C8C9
:10333000853F5EB28D0FAA2AC1C295C6B13FBEB409
:103340007C0C6C308EC1E2C4D43F4DB76409EB35C0
:10335000B1C038C3EC3F09BA46061E3B2CC097C12A
:10336000FB3FF0BC240370477047704770477047BD
:1033700010B500F009F8006810BD10B5044600F063
:1033800003F8046010BD0000004870477C0B00206B
:10339000004870477C0B00207546FFF7F9FFAE46EA
:1033A00005006946534620F00700854618B020B551
:1033B000FDF7B0FDBDE820404FF000064FF00007DC
:1033C0004FF000084FF0000B21F00701AC46ACE8CD
:1033D000C009ACE8C009ACE8C009ACE8C0098D463A
:1033E000704710B50446AFF300802046BDE810409A
:1033F000FCF7E5BE2DE9F04106460F4600F0D6FA8F
:10340000041E0D4618BF0120284320F00040C0F1E3
:103410007F6000F1E040C00F0ED0301C18BF0120CB
:10342000384320F00040C0F17F6000F1E040C00F61
:1034300004BF0120FFF7A1FF20462946BDE8F08127
:1034400021F00042A2F16052B2F5801F01F000436A
:1034500028BFD2F17F6C0BD95FEA001C43EAC2029D
:1034600042EB507018BF704728BF20F00100704732
:10347000B2F5801FBCBF184670474FEA410C1CF5DF
:10348000001F02D2084600F0C2BD70B500F03AFA43
:1034900000000089FFF7F6BF4FF00040A0F5800064
:1034A000704700002DE9C04130B4DFF8A0C23CEA0B
:1034B000111418BF3CEA131400F0EC8081EA0305F4
:1034C0001CEA111444EAD57418BF1CEA131500F065
:1034D000C780A4EB05044FF0004545EAC12145EA49
:1034E000C32341EA505143EA525304F17F74994295
:1034F00004F500344FEAC0204FEAC22208BF9042D0
:1035000000F09C804FEA13650FF24016765D4FEA9B
:10351000134506FB05F7C7F1807706FB07F74FEA6F
:10352000D737A7FB03687642C8F58038A7FB06CEDD
:1035300038BFA8F1010807FB08E64FF0000EA6FB14
:10354000028CE6FB03CEDCF1000CCEF1004E38BF5E
:10355000AEF1010EA6FB0C584FF000074FF000052E
:10356000E6FB0E87A1FB08C6A0FB07CE16EB0E06F6
:1035700045F10005E1FB076515F1E04E7EBFA4F5BE
:1035800080345FEA46066D4116F1800745F100057B
:103590004FEA17274FEA066647EA0567A6F1DE46B7
:1035A000B6F1805F4FEA15251FD9384624F0010C8B
:1035B00005EBC471BCF1FE6F01EB0C1102D8F0BC3D
:1035C000BDE8008124425CBF01F5801E9EEAC47FF5
:1035D00002D4F0BCBDE80081244238D4F0BCA1F193
:1035E000C041BDE8004100F0DBB94FEAD22242EA17
:1035F00043524FEAD323A7FB02864FEAD02040EA8A
:10360000415007FB03661EEA0E0F4FEAD12105FB6E
:10361000026658BFA6EB0056B6EB00564FEA520EB4
:103620004EEAC37E18EB0E0E56EB530EBDD518EBCB
:1036300002085E417F1C55F10005B6E74FF4801586
:103640004FF000074FF000064FF00008ADE7F0BC68
:103650004FF0000001F1C04101F00041BDE80081E0
:1036600011EA0C1F0CEA131500D00CE013EA0C1F32
:1036700000F025804FF00000F0BC81EA030101F06A
:103680000041BDE80081F0BCBDE8004181EA0301D2
:1036900000F086B9F0BCBDE8004170B500F032F929
:1036A000097EFC3E00F007B881EA03014FF00000FC
:1036B00001F00041704781EA030100F071B9F0BCEC
:1036C000BDE800414FF0000021497047FFFDFBF9C4
:1036D000F7F5F4F2F0EEEDEBE9E8E6E4E3E1E0DE45
:1036E000DDDBDAD8D7D5D4D3D1D0CFCDCCCBCAC8B7
:1036F000C7C6C5C4C2C1C0BFBEBDBCBBBAB9B8B7DE
:10370000B6B5B4B3B2B1B0AFAEADACABAAA9A8A8D0
:10371000A7A6A5A4A3A3A2A1A09F9F9E9D9C9C9B9E
:103720009A99999897979695959493939291919049
:103730008F8F8E8E8D8C8C8B8B8A898988888787DA
:103740008685858484838382828181800000FF074F
:103750000000F87F4FEA1153A3F58063D3F11E03F5
:10376000A8BFD3F1200C08DB4FF0004242EAC1228F
:1037700052EA505232FA03F0704709420BD4102B30
:10378000C4BF0020704703F5787CBCF1FF3F05D033
:103790004FF0FF3070474FF00000704770B500F0F9
:1037A000B1F800BF4992248000207047F0E7000084
:1037B000DFF848C170B51CEA111E1EBF1CEA1315C4
:1037C0009EEA0C0F95EA0C0F00F06F8081EA03046B
:1037D00023EA4C134EEAD47E21EA4C1141F48011C5
:1037E00043F48013AE44A1FB024CA0FB0365AEF191
:1037F0007F7E361955EB0C05A1FB034C4CF1000301
:10380000A0FB021C16EB0C06654153F100030942B4
:1038100018BF46F0010613F4007F0BD14FEA0331C5
:103820004FEA0530340341EA155140EA16506FF073
:1038300003020AE04FEAC3214FEAC520F40241EA3D
:10384000555140EA56506FF0020202EB2E4201EB56
:10385000025585EACE710AD05FEA440C18BF24F005
:10386000004450F1000041F1000120EAD47040F220
:10387000FE7C624500D270BDA84214BF4FF0804468
:103880004FF04044002E08BF0024BEF1806FA8BF57
:10389000A1F1C041BDE8704080F282804FF000008D
:1038A00001F1C04101F0004170479EEA0C0F0CEAA3
:1038B000131518BF95EA0C0F06D04FF0000081EAEF
:1038C000030E0EF0004170BD00F01CF88900013EAF
:1038D00000F007B800F009B84FEA430C5FEA5C5CFF
:1038E00008D081EA030100F05BB84FEA410C5FEABF
:1038F0005C5CF6D14FF00000014970470000FF0703
:103900000000F87F0EF1020E2EF0030E5EF8046B3D
:10391000364205D4012A43EB030515F5001F12D8E2
:10392000012841EB010C1CF5001F0CD80ED14FEA09
:10393000D17C15F5001F0CEB4C0C0CF1020C08BFF0
:103940004CEBD37C04E04FF0080C01E04FEAD37C51
:103950000CEB4C0526FA05F606F00706B6F1040C4A
:1039600006D20EEB860CBDE870404CF0010C6047AF
:10397000DFE80CF0090B02024FF000414FF00000AD
:10398000A1F5002170BD19461046012851EB010434
:1039900018BFD4F5001484BF002001F0004170BDB1
:1039A0000808A0F500114FEA310170472DE9F041F8
:1039B00001F5801CBCF5001FC0F2C3804FEA115C0A
:1039C00021EA0C510CF1FD0C41F480115FEA5C0C12
:1039D0000CF5C07C01D3400049413DA4890241EA75
:1039E000905187028E0E0A0CA45D04FB04F602FBC4
:1039F00006F6C6F14046A4FB0662F60D46EA4226EC
:103A000006FB06F4A4FB01235242C3F1404338BF36
:103A10005B1EA6FB02420024E6FB0324D20B42EA13
:103A20004446A6FB0623A1FB02E2A3FB07E4A4187D
:103A30004FF0000252F10002E3FB01426442C2F186
:103A4000404E38BFAEF1010EA6FB04234FF000023A
:103A5000E6FB0E32A2FB03464FF00004B61954F108
:103A60000004E2FB0264A1FB06E6A4FB07E816EBF8
:103A700008064FF0000858F10008E4FB01687642A0
:103A8000C8F1405838BFA8F10108A2FB06E4A3FB27
:103A900008E52D194FF0000454F10004E2FB08542E
:103AA000A1FB05E6A7FB04E818EB06084FF00006AB
:103AB00056F10006E1FB048618F1200556F10006D8
:103AC000A809A8F11B08B10908F03F08B8F10A0FCE
:103AD00040EA86601CD901EB0C51BDE8F08100BFC3
:103AE000FCF5EEE8E2DDD8D3CFCBC7C3C0BDB9B695
:103AF000B4B1AEACA9A7A5A3A19F9D9B9A9896959A
:103B00009392908F8D8C8B89888786858483828120
:103B1000A0FB006800FB01F208EB4208B8EB872825
:103B200007D5341858EB0104D5D5401C51F10001DC
:103B3000D1E7341A78EB0104CDD4401E71F10001B5
:103B4000C9E75FEA4C0C5FEA9C5C0DD105D34FF0EE
:103B5000000001F00041BDE8F081BDE8F04170B522
:103B6000FFF7D0FE6DDBFFBEBDE8F0414FF0000077
:103B7000004970470000F87F43004FEAD30C4FEA3A
:103B80003C0C43401FBF40070CF1605113F0FE4F47
:103B900070471CF0006F03D100200CF0004170470B
:103BA0000CF0004343EA507010B540EACC0000F03E
:103BB000E8F900BF000000924FEA0001FFF7F0BEF5
:103BC0004FF000414FF00000A1F5002170470000C8
:103BD00090EA010F48BF81F0004100F12482421AAF
:103BE0003CBF801A89184FEAD0524FF07F4C1CEA34
:103BF000410FA2EBD15318BF9CEA026F00F03B804B
:103C00004FF0004C4CEA00204CEA012121FA03FC61
:103C100010EB0C0C1ED202F1FF325FEA1C2040EBCD
:103C2000C25038BF70471CF07F0F4FEA400C18BFDE
:103C3000BCF17F4F38BF7047C3F12003994008BFE4
:103C400020F00100BCF17F4F38BF7047A0F1C040A9
:103C500000F0DDB94FEA3C00000A40EBC25028BF3B
:103C60001CF0FF0F4FEA400CE6D018BFBCF17F4FAD
:103C700038BF7047EAE79CEA026F05D010EA5C0F94
:103C800008BF00F00040704710B500F07AF900BF9F
:103C900064FBBE3E4FF47F0C1CEAD0121EBF1CEA30
:103CA000D11392EA0C0F93EA0C0F00F0858090EA92
:103CB000010F48BF42F4807240F4000C41F4000050
:103CC0002CF07F4120F07F4000B58142A2EB03023F
:103CD0000FF2081CACEB504EC0F100009EF800E063
:103CE0004FEA4E0E00FB0EFC38BF49004FEA2C1C79
:103CF00002F5FA020CFB0EF34FEACE1E4FEA112C2E
:103D00004FEAC1210EEB635E42EB22420EFB0CFC3C
:103D10004FEA1C5300FB03114FEA112C4FEA01310B
:103D20000EFB0CFC4FEADC4C00FB0C11C14228BF1F
:103D300009184CEB03335DF804EB10EB410143EB46
:103D4000C250B2F57C0F38BF704729D512F0F00F82
:103D50001CBF00F1C04000F000407047008182832A
:103D60008485868788898B8C8D8E8F91929395968A
:103D700097999A9C9D9FA0A2A3A5A7A8AAACAEB014
:103D8000B2B3B5B7B9BCBEC0C2C5C7C9CCCED1D419
:103D9000D7D9DCDFE2E6E9ECF0F3F7FAFE00000049
:103DA0004FEA400C0CF1807CBCF17E4F28BF70477D
:103DB000B0F1C04000F02BB990EA010F0CEAD1132A
:103DC00048BF42F48072624538BF634507D213F49E
:103DD0007F0F16D080EA010000F00040704710B558
:103DE00000F0CFF8097EFC3E00F005B880EA010043
:103DF00000F00040704780EA010000F0004000F051
:103E000006B912F47F0F04BF0248704780EA010030
:103E100000F0FDB80000C07F41000B0ED3F19E0200
:103E200008D950F400034FEA032323FA02F048BFF5
:103E30004042704710B500F0A4F800BF49922480BA
:103E4000002070476FF0004282EA200070470000B7
:103E500010F0004148BF4042B0FA80F310FA03F27C
:103E6000C3F19D030BD051EAC35101EB122053065D
:103E700038BF704700F1010008BF20F00100704713
:103E80004FF47F0C1CEAD0121EBF1CEAD11392EA39
:103E90000C0F93EA0C0F00F0478090EA010F48BF27
:103EA00042F480724FF0004C4CEA00204CEA0121B1
:103EB00002EB0302A0FB0113A2F50002002918BFC8
:103EC00043F001035B0028BF4FEA330342EB224279
:103ED0005FEA132C4CEBC2502EBFBCEB436FB2F524
:103EE0007C0F70474FEA036CBCF1004F08BF20F015
:103EF0000100B2F57C0F38BF70470BD582F0FF028E
:103F000012F5803FC8BF704700F1C040D8BF00F035
:103F10000040704700F5000C5FEA4C0C48BF70474A
:103F2000B0F1C04000F073B890EA010F0CEAD11371
:103F300048BF42F48072624538BF634504D280EACC
:103F4000010000F00040704710B500F01AF800BF03
:103F50008900013E00F007B800F009B85FEA410CA3
:103F60005FEA1C6C08D080EA010000F050B85FEAFC
:103F7000400C5FEA1C6CF6D14FF00040A0F58000C9
:103F800070470EF1020E2EF0030E5EF8044B244231
:103F900004D44FEA4102B2F17F4F11D84FEA4003F7
:103FA000B3F17F4F0CD80ED14FEAD07CB2F17F4FE6
:103FB0000CEB4C0C0CF1020C08BF4CEBD17C04E078
:103FC0004FF0080C01E04FEAD17C0CEB4C0324FAD3
:103FD00003F404F00704B4F1040C06D20EEB840CD5
:103FE000BDE810404CF0010C6047DFE80CF007081A
:103FF00002024FF00040A0F5800010BD08464200CC
:1040000018BFD2F1807288BF00F0004010BDFF21C0
:1040100041EAD050C005704790EA010F48BF81F0D7
:1040200000413FF5DCAD421A04D882F00042A0EB1B
:10403000020011444FEAD0524FF07F4C1CEA410F6E
:10404000A2EBD15318BF9CEA026F4AD04FF0004C4C
:104050004CEA00204CEA012121FA03FCB0EB0C0CE5
:104060000FD412F0FE0F36D05FEA4C001DD50012BF
:1040700040EBC25038BF70471CF03F0F18BF70476D
:104080000BE0A2F101025FEA1C2040EBC25038BFF6
:1040900070471CF07F0F18BF7047C3F12003994091
:1040A00014BF401E20F00100704780084FEA122321
:1040B00008BF7047B0FA80FCA2EB0C02CCF1280CD0
:1040C00060FA0CF093EA122F04BF00EBC250704765
:1040D0004FEAC3707047130A5FEADC1008BF7047ED
:1040E000F6E79CEA026F04D010EA5C0F08BF0020DC
:1040F000704710B5FFF745FF40DFF63E81F0004006
:104100007047000024410008000000208C000000DF
:104110006C010008B04100088C0000205411000020
:1041200088010008010000000000000000000000FD
:1041300000A24A0400000000000000000102030485
:104140000607080900000000000000000000000051
:10415000000000000000000000000000FFFF000061
:104160000000FFFF00AAAA20020083180000000040
:10417000000000000000000000000000000000003F
:104180000000000004000500000000000000000026
:10419000000000000000000000000000000001021C
:1041A00003040102030406070809020406080000CC
:0400000508000131BD
:00000001FF
