:020000040800F2
:10000000883400207121000871040008730400087E
:10001000770400087B0400087F040008000000004B
:100020000000000000000000000000008304000841
:100030008504000800000000870400088904000807
:100040008B2100088B2100088B2100088B210008E0
:100050008B2100088B2100088B2100088B210008D0
:100060008B2100088B2100088B2100088B210008C0
:100070008B2100088B2100088B2100088B210008B0
:100080008B2100088B2100088B2100088B210008A0
:100090008B2100088B2100088B2100088B21000890
:1000A0008B2100088B2100088B2100088B21000880
:1000B000A30300088B2100088B2100088B21000876
:1000C0008B2100088B2100088B2100088B21000860
:1000D0008B210008D11F00088B2100088B2100080C
:1000E0008B2100088B2100088B2100088B21000840
:1000F0008B2100088B2100088B2100088B21000830
:100100008B2100088B2100088B2100088B2100081F
:100110008B2100088B2100088B2100088B2100080F
:100120008B2100088B2100088B2100088B210008FF
:10013000DFF80CD004F07EFE00480047790100088B
:10014000883400202DE9F04106460C4600270025A2
:1001500006E056F82510384604F045FA07466D1CAF
:10016000A542F6DB204604F08EFC80464146384628
:1001700004F0C3FABDE8F08186B00121084602F020
:1001800025FB0121042002F021FB0121084602F099
:100190002AFB01F0ABFE01F03FFE4FF4E13001F02D
:1001A000C8FE01F0C1FF01F025FE82A004F084FE2C
:1001B0000A2001F06EFE84A004F07EFE0A2001F009
:1001C00068FE86A004F078FE0A2001F062FE4FF47B
:1001D000FA7001F05EFE4FF4FA728349834801F031
:1001E0002BFD00208249CDE904018249CDE90201BD
:1001F0004FF480700022804B032100907F4801F073
:100200009CFC00217A48CDE904107A48CDE902101F
:100210004FF480704FF03332794B012100907948D0
:1002200001F08BFC00217248CDE904107148CDE942
:1002300002104FF480700A46734B0090734801F02F
:100240007CFC00216A48CDE904106A48CDE902101F
:100250004FF480700A466E4B022100906D4801F009
:100260006CFC00206249CDE9040101466148CDE9FA
:1002700002104FF480700022674B02210090674803
:1002800001F05BFC8CE0664800780028FAD0002082
:1002900063490870072001F04DFF044604F0FCFBA1
:1002A0006049086008460168544801F06AFC5E49EC
:1002B000086008460168534801F063FC5B49086028
:1002C00008460168514801F05CFC5949086008463D
:1002D0000168504801F055FC5649086054480168CF
:1002E0004E4801F04EFC544908605148006853499B
:1002F000534A126841F822004E4800685149504A5A
:10030000126841F822004C4800684F494C4A126874
:1003100041F822004A480068401C494908600846E4
:100320000068FF2838D1002008604849484800F09C
:100330009DF94FF480724449454803F053FE454906
:10034000434800F093F94FF480723E49404803F06F
:1003500049FE41493E4800F089F900203F490860C4
:1003600016E03D483D4C246850F8243039483B4C59
:10037000246850F824203548384C246850F824105C
:1003800037A004F099FD35480068401C33490860E7
:10039000324800687F28E4D30121880703F044FB3A
:1003A00071E710B50121880703F018FE01201C49F0
:1003B000087010BD41542B4E414D453D5369636853
:1003C000697261790D0A000041542B4E414D423D46
:1003D00053696368697261790D0A000041542B42C8
:1003E000415544380D0A00008000002074020020AE
:1003F0000000F03F0000E03F00004940880F00206F
:100400003333E33FF00F002000004E40581000202F
:1004100000003840C01000200000284028110020B3
:100420000C000020240000203000002034000020B8
:1004300038000020280000202C000020901100200F
:100440000800002090190020901D0020BC290020E9
:10045000BC210020BC2B0020BC2D0020040000206B
:10046000256C642C256C642C256C640A000000004B
:10047000704700BFFEE700BFFEE700BFFEE700BF1A
:10048000FEE7704770477047704700000CB50020CA
:10049000019000906C48006840F480306A49086020
:1004A00000BF6948006800F4003000900198401CCB
:1004B0000190009818B90198B0F5A06FF1D1624889
:1004C000006800F4003010B10120009001E000202D
:1004D00000900098012843D15C48006840F010006B
:1004E0005A4908600846006820F003000860084682
:1004F000006840F002000860534840685249486074
:100500000846406848600846406840F4806048609B
:100510000846406820F47C1048600846406840F473
:10052000E81048600846006840F08070086000BF2E
:100530004548006800F000700028F9D04248406843
:1005400020F00300404948600846406840F002003F
:10055000486000BF3C48406800F00C000828F9D112
:100560000CBD10B5FFF792FF10BD10B536480068FE
:1005700040F00100344908600846406834490840AA
:100580003149486008460068324908402E490860F1
:100590000846006820F4802008600846406820F47F
:1005A000FE0048604FF41F008860FFF7DAFF4FF04D
:1005B00000602949086010BD10B50021002000220C
:1005C000214B5B6803F00C0121B1042906D00829F6
:1005D00028D107E0214B224C236027E01F4B204C01
:1005E000236023E0184B5B6803F47010164B5B68C4
:1005F00003F48032022303EB904022B9194B4343AA
:10060000174C23600DE0104B5B6803F4003323B1FB
:10061000144B4343124C236003E0104B4343104CF4
:10062000236003E00D4B0E4C236000BF00BF064B60
:100630005B68C3F303130C4CE15C094B1B68CB40B4
:10064000074C236010BD0000001002400020024053
:100650000000FFF8FFFFF6FE08ED00E000127A0050
:100660004400002000093D00480000202DE9F04F23
:1006700087B005460E46002444E035F824000FFA02
:1006800080F855F824004FEA2049404604F0FBF971
:100690004FF08741019003F0FEFF834604F022FAF9
:1006A0000022FE4BCDE9020104F07EF9CDE9040100
:1006B00004F044FA0746484604F0E5F94FF0874154
:1006C000019003F0E8FF834604F00CFA0022F34B9C
:1006D000CDE9020104F068F9CDE9040104F02EFA35
:1006E00006903946384603F0D6FF82461CB90020F2
:1006F00046F8240004E0504604F0E0F946F82400EF
:10070000601C84B2802CB8DB07B0BDE8F08F30B538
:10071000C3685B43032493FBF4F4836803FB03F295
:1007200002EBD273858805EB630323440B80436996
:100730005B43052493FBF4F4036903FB03F2D31733
:1007400002EB937304EBA30483695B43062593FBDD
:10075000F5F31C44C3695B43072593FBF5F323447E
:100760004B80436A5B43092493FBF4F4036A03FB65
:1007700003F2D31702EB537304EBE3034B81826A5A
:1007800052430A2392FBF3F3C26A52430B2492FBB7
:10079000F4F21A448A81436A5B43092493FBF4F41C
:1007A000036A03FB03F2D31702EB537304EBE30476
:1007B000836A5B430A2593FBF5F31C44C36A5B43DE
:1007C0000B2593FBF5F323448B80036B5B430C24D5
:1007D00093FBF4F4436B5B430D2593FBF5F31C444F
:1007E000836B5B430E2593FBF5F31C44C36B5B43A8
:1007F0000F2593FBF5F31C44036C03FB03F2D317A3
:1008000002EB137304EB2314436C5B43112593FB3E
:10081000F5F31C44836C5B43122593FBF5F31C44F6
:10082000C36C5B43132593FBF5F31C44036D5B43DF
:10083000142593FBF5F31C44436D5B43152593FB93
:10084000F5F31C44836D5B43162593FBF5F31C44C1
:10085000C36D5B43172593FBF5F31C44036E5B43A9
:10086000182593FBF5F31C44436E5B43192593FB5A
:10087000F5F32344CB81836E5B431A2493FBF4F49A
:10088000C36E5B431B2593FBF5F31C44036F5B4373
:100890001C2593FBF5F31C44436F5B431D2593FB21
:1008A000F5F31C44836F5B431E2593FBF5F31C4457
:1008B000C36F5B431F2593FBF5F31C44D0F88030D6
:1008C00003FB03F2D31702EBD36304EB6314D0F8FA
:1008D00084305B43212593FBF5F31C44D0F888302A
:1008E0005B43222593FBF5F31C44D0F88C305B432B
:1008F000232593FBF5F31C44D0F890305B4324256B
:1009000093FBF5F31C44D0F894305B43252593FB0F
:10091000F5F31C44D0F898305B43262593FBF5F3A0
:100920001C44D0F89C305B43272593FBF5F323440C
:100930000B82CA890B8A1A44CA80D0F8A02052437D
:10094000282392FBF3F3D0F8A4205243292492FBEE
:10095000F4F21344D0F8A82052432A2492FBF4F274
:100960001344D0F8AC2052432B2492FBF4F21344EE
:10097000D0F8B02052432C2492FBF4F21344D0F868
:10098000B42052432D2492FBF4F21344D0F8B82043
:1009900052432E2492FBF4F21344D0F8BC2052436D
:1009A0002F2492FBF4F21344D0F8C0205243302499
:1009B00092FBF4F21344D0F8C4205243312492FB4A
:1009C000F4F21344D0F8C8205243322492FBF4F2DC
:1009D0001344D0F8CC205243332492FBF4F2134456
:1009E000D0F8D0205243342492FBF4F21344D0F8D0
:1009F000D4205243352492FBF4F21344D0F8D8208B
:100A00005243362492FBF4F21344D0F8DC205243D4
:100A1000372492FBF4F21344D0F8E02052433824F8
:100A200092FBF4F21344D0F8E4205243392492FBB1
:100A3000F4F21344D0F8E82052433A2492FBF4F243
:100A40001344D0F8EC2052433B2492FBF4F21A44B6
:100A50004A82D0F8F0305B433C2493FBF4F4D0F8A6
:100A6000F4305B433D2593FBF5F31C44D0F8F8309C
:100A70005B433E2593FBF5F31C44D0F8FC305B430D
:100A80003F2593FBF5F31C44D0F8003103FB03F240
:100A9000D31702EB936304EBA31401E00000E040E2
:100AA000D0F804315B43412593FBF5F31C44D0F8A7
:100AB00008315B43422593FBF5F31C44D0F80C311D
:100AC0005B43432593FBF5F31C44D0F810315B43A3
:100AD000442593FBF5F31C44D0F814315B434525C2
:100AE00093FBF5F31C44D0F818315B43462593FB88
:100AF000F5F31C44D0F81C315B43472593FBF5F319
:100B00001C44D0F820315B43482593FBF5F31C448B
:100B1000D0F824315B43492593FBF5F31C44D0F80E
:100B200028315B434A2593FBF5F31C44D0F82C3164
:100B30005B434B2593FBF5F31C44D0F830315B430A
:100B40004C2593FBF5F31C44D0F834315B434D2521
:100B500093FBF5F31C44D0F838315B434E2593FBEF
:100B6000F5F31C44D0F83C315B434F2593FBF5F380
:100B700023448B824A8A8B8A1A440A8130BD000042
:100B800001B59EB000211A911B91189119911691EF
:100B90001791149115910020129013901E98C16C1A
:100BA000806CCDE910011E99D1E9160121F00041B8
:100BB0000022FE4BCDE9080103F0F6FE02460B468B
:100BC000CDE90A010020FA4904F040FECDE90E010A
:100BD0001E98416C006C02460B46CDE90801F548B1
:100BE000F54903F06FFECDE90A0105F041FBCDE9BF
:100BF0000C011E980078072880F05187DFE810F07C
:100C000007008500FC007501FF0187037C05DDE915
:100C10000C231046194603F055FECDE90801DDE925
:100C20001023DDE90C0103F0BFFE0022E34BCDE908
:100C3000040103F0A0FDCDE90601DDE9082303F07E
:100C40009AFD02460B46CDE90A010020DB4903F07C
:100C5000ABFECDE91C01DDE90C231046194603F07B
:100C600031FECDE90A01DDE91C2303F02BFECDE9BD
:100C70001A0100204FF08041DDE91A2303F022FE23
:100C8000CDE91801DDE91A01CDE91601DDE90C23F2
:100C90001046194603F016FE0022C84BCDE90601A6
:100CA00003F00AFE00224FF08043CDE9080103F073
:100CB00009FECDE90A01DDE91C2303F003FECDE9BD
:100CC0001401DDE90C231046194603F0FBFDCDE9C4
:100CD0000801DDE91023DDE90C0103F065FE0022C7
:100CE000B64BCDE9040103F0EAFDCDE90601DDE9EB
:100CF000082303F040FDCDE90A01DDE91C2303F0E0
:100D0000E1FDCDE9120100F0CABEDDE90C23104679
:100D1000194603F0D7FDCDE90801DDE91023DDE92F
:100D20000C0103F041FE0022A44BCDE9040103F0C5
:100D300022FDCDE90601DDE9082303F01CFD024692
:100D40000B46CDE90A0100209C4903F02DFECDE9B8
:100D50001C0100209949DDE91C2303F0B3FDCDE916
:100D60001A0100204FF04041DDE91A2303F0AAFDEB
:100D7000CDE91801DDE91A01CDE91601DDE90C2301
:100D80001046194603F09EFD00228C4BCDE906016A
:100D900003F092FD00224FF08043CDE9080103F0FB
:100DA00091FDCDE90A01DDE91C2303F08BFDCDE9BE
:100DB0001401DDE90C231046194603F083FDCDE94B
:100DC0000801DDE91023DDE90C0103F0EDFD00224F
:100DD0007A4BCDE9040103F072FDCDE90601DDE9AE
:100DE000082303F0C8FCCDE90A01DDE91C2303F068
:100DF00069FDCDE9120186E7DDE90C2310461946AD
:100E000003F060FDCDE90801DDE91023DDE90C0107
:100E100003F0CAFD0022694BCDE9040103F0ABFCED
:100E2000CDE90601DDE9082303F0A5FC02460B46E7
:100E3000CDE90A010020614903F0B6FDCDE91C01AE
:100E4000DDE91023DDE90C0103F0AEFDCDE90A0177
:100E5000DDE91C2303F036FDCDE91A0100211891CC
:100E60001991DDE91A0181F00041CDE91601DDE9B2
:100E70000C231046194603F025FD00224F4BCDE907
:100E8000060103F019FD00224FF08043CDE908016F
:100E900003F018FDCDE90A01DDE91C2303F012FD82
:100EA000CDE91401DDE90C231046194603F00AFDD3
:100EB000CDE90801DDE91023DDE90C0103F074FD43
:100EC00000223E4BCDE9040103F0F9FCCDE9060117
:100ED000DDE9082303F04FFCCDE90A01DDE91C231D
:100EE00003F0F0FCCDE912010DE7DDE90C2310461B
:100EF000194603F0E7FCCDE90801DDE91023DDE93F
:100F00000C0103F051FD00222C4BCDE9040103F04C
:100F100032FCCDE90601DDE9082303F02CFC024692
:100F20000B46CDE90A010020244903F03DFDCDE93F
:100F30001C01DDE90C231046194603F0C3FC002216
:100F40001E4BCDE9080103F016FCCDE90A01DDE9ED
:100F50001C2303F0B7FCCDE91A01DDE90C23104690
:100F6000194603F0AFFC0022144BCDE9060103F053
:100F7000A3FC00224FF08043CDE9080103F0A2FC5E
:100F8000CDE90A01DDE91C2303F09CFCCDE9180141
:100F9000DDE91A01CDE91601DDE91801CDE91401F9
:100FA000DDE90C23104619460AE000000000344039
:100FB00000002440182D4454FB2109400000F03F5C
:100FC00003F080FCCDE90801DDE91023DDE90C0127
:100FD00003F0EAFC0022FE4BCDE9040103F06FFCB4
:100FE000CDE90601DDE9082303F0C5FBCDE90A01DF
:100FF000DDE91C2303F066FCCDE9120183E61E99AE
:10100000D1E9160100221346CDE90A0103F07EFD65
:101010007ED8DDE90C231046194603F053FCCDE9D8
:1010200008010020EA49DDE9102303F0BDFCCDE909
:101030000201DDE90C2303F045FC0022E44BCDE97D
:10104000040103F098FBCDE90601DDE9082303F074
:1010500092FB02460B46CDE90A010020DC4903F071
:10106000A3FCCDE91C01DDE90C231046194603F071
:1010700029FCCDE908010EA80FC803F095FCCDE9C5
:101080000201DDE90C2303F01DFC0022D04BCDE969
:10109000040103F070FBCDE90601DDE9082303F04C
:1010A0006AFBCDE90A01DDE91C2303F00BFCCDE965
:1010B0001A01DDE90C231046194603F003FC002257
:1010C000C34BCDE9060103F0F7FB00224FF080434C
:1010D000CDE9080103F0F6FBCDE90A01DDE91C23A7
:1010E00003F0F0FBCDE91801DDE90C2310461946A9
:1010F00003F0E8FBCDE908010EA80FC803F054FC8B
:10110000CDE90201DDE90C2303F0DCFB002200E065
:101110003FE0AF4BCDE9040103F0D1FBCDE906017F
:10112000DDE9082303F027FBCDE90A01DDE91C23F3
:1011300003F0C8FBCDE91601DDE91801CDE9140182
:10114000DDE90C231046194603F0BCFBCDE908018C
:1011500000209F49DDE9102303F026FCCDE90201C0
:10116000DDE90C2303F0AEFB0022994BCDE904012D
:1011700003F0A5FBCDE90601DDE9082303F0FBFA46
:10118000CDE90A01DDE91C2303F09CFBCDE9120146
:10119000BCE0DDE90C231046194603F093FBCDE9D2
:1011A00008010EA80FC803F0FFFBCDE90201DDE93D
:1011B0000C2303F087FB0022854BCDE9040103F0EB
:1011C000DAFACDE90601DDE9082303F0D4FA024694
:1011D0000B46CDE90A0100207D4903F0E5FBCDE98E
:1011E0001C01DDE90C231046194603F06BFBCDE929
:1011F000080100207649DDE9102303F0D5FBCDE995
:101200000201DDE90C2303F05DFB0022704BCDE908
:10121000040103F0B0FACDE90601DDE9082303F08B
:10122000AAFACDE90A01DDE91C2303F04BFBCDE965
:101230001A01DDE90C231046194603F043FB002296
:10124000634BCDE9060103F037FB00224FF08043EA
:10125000CDE9080103F036FBCDE90A01DDE91C23E5
:1012600003F030FBCDE91801DDE90C2310461946E7
:1012700003F028FBCDE9080100205549DDE91023E2
:1012800003F092FBCDE90201DDE90C2303F01AFB28
:1012900000224F4BCDE9040103F011FBCDE906011B
:1012A000DDE9082303F067FACDE90A01DDE91C2333
:1012B00003F008FBCDE91601DDE91801CDE91401C1
:1012C000DDE90C231046194603F0FCFACDE90801CC
:1012D0000EA80FC803F068FBCDE90201DDE90C237D
:1012E00003F0F0FA00223A4BCDE9040103F0E7FAEB
:1012F000CDE90601DDE9082303F03DFACDE90A0155
:10130000DDE91C2303F0DEFACDE91201C7E31E99E3
:10131000D1E9160100221346CDE90A0103F0F6FBDC
:101320007ED8DDE90C231046194603F0CBFACDE94F
:10133000080100204FF0804104F074FFCDE9020164
:10134000DDE90C2303F0BEFA0022214BCDE90401B4
:1013500003F011FACDE90601DDE9082303F00BFAE9
:1013600002460B46CDE90A010020194903F01CFB97
:10137000CDE91C01DDE90C23DDE90E0103F0A2FA41
:10138000CDE90401DDE90C2303F09CFACDE9080165
:1013900000204FF08041DDE90E2303F093FACDE900
:1013A000000104F03FFFCDE90201DDE90C2303F069
:1013B00089FA0022064BCDE9040103F0DCF9CDE9FE
:1013C0000601DDE9082303F0D6F9CDE90A0101E0C1
:1013D0000000F03FDDE91C2303F074FACDE91A01A7
:1013E000DDE90C23DDE90E0103F06CFACDE904011F
:1013F000DDE90C2303F066FA0022FE4BCDE906017D
:1014000003F05AFA00224FF08043CDE9080103F0BF
:1014100059FACDE90A01DDE91C2303F053FA00E093
:1014200077E0CDE91801DDE90C23DDE90E0103F0D9
:1014300049FACDE90401DDE90C2303F043FACDE9D3
:10144000080100204FF08041DDE90E2303F03AFA55
:10145000CDE9000104F0E6FECDE90201DDE90C234F
:1014600003F030FA0022E34BCDE9040103F027FA40
:10147000CDE90601DDE9082303F07DF9CDE90A0194
:10148000DDE91C2303F01EFACDE91601DDE90C238A
:101490001046194603F016FA0022D64BCDE9060194
:1014A00003F00AFA00224FF08043CDE9080103F06F
:1014B00009FACDE90A01DDE91C2303F003FACDE9BD
:1014C0001401DDE90C231046194603F0FBF9CDE9C0
:1014D000080100204FF0804104F0A4FECDE9020194
:1014E000DDE90C2303F0EEF90022C24BCDE9040143
:1014F00003F0E5F9CDE90601DDE9082303F03BF946
:10150000CDE90A01DDE91C2303F0DCF9CDE9120184
:10151000F1E0DDE90C23DDE90E0103F0D3F9CDE9BB
:101520000401DDE90C2303F0CDF9CDE90801002029
:101530004FF08041DDE90E2303F0C4F9CDE900014D
:1015400004F070FECDE90201DDE90C2303F0BAF9E5
:101550000022A84BCDE9040103F00DF9CDE9060105
:10156000DDE9082303F007F902460B46CDE90A013D
:101570000020A04903F018FACDE91C01DDE90C2395
:101580001046194603F09EF9CDE9080100204FF0FE
:10159000804104F047FECDE90201DDE90C2303F0B0
:1015A00091F90022934BCDE9040103F0E4F8CDE971
:1015B0000601DDE9082303F0DEF8CDE90A01DDE9E3
:1015C0001C2303F07FF9CDE91A01DDE90C23104655
:1015D000194603F077F90022864BCDE9060103F0A6
:1015E0006BF900224FF08043CDE9080103F06AF95E
:1015F000CDE90A01DDE91C2303F064F9CDE9180106
:10160000DDE90C231046194603F05CF9CDE9080129
:1016100000204FF0804104F005FECDE90201DDE934
:101620000C2303F04FF90022724BCDE9040103F0C3
:1016300046F9CDE90601DDE9082303F09CF8CDE980
:101640000A01DDE91C2303F03DF9CDE91601DDE9CE
:101650000C23DDE90E0103F035F9CDE90401DDE9E4
:101660000C2303F02FF90022624BCDE9060103F0B1
:1016700023F900224FF08043CDE9080103F022F95D
:10168000CDE90A01DDE91C2303F01CF9CDE91401C1
:10169000DDE90C23DDE90E0103F014F9CDE90401C5
:1016A000DDE90C2303F00EF9CDE9080100204FF02D
:1016B0008041DDE90E2303F005F9CDE9000104F0D6
:1016C000B1FDCDE90201DDE90C2303F0FBF80022B6
:1016D000484BCDE9040103F0F2F8CDE90601DDE95C
:1016E000082303F048F8CDE90A01DDE91C2303F0E3
:1016F000E9F8CDE91201D2E11E98D0E91612CDE940
:101700000A120022134608460B9903F0FFF973D81A
:10171000DDE90C231046194603F0D4F8CDE90801A1
:1017200000204FF0804104F07DFDCDE90201DDE9AC
:101730000C2303F0C7F800222E4BCDE9040103F07F
:101740001AF8CDE90601DDE9082303F014F8024692
:101750000B46CDE90A010020264903F025F9CDE921
:101760001C01DDE90C231046194603F0ABF8CDE966
:10177000080100204FF08041DDE90E2303F0A2F8BC
:10178000CDE9000104F04EFDCDE90201DDE90C23B5
:1017900003F098F8CDE90401DDE90E2302F0EBFF38
:1017A000CDE90601DDE9082302F0E5FFCDE90A01F4
:1017B000DDE91C2303F086F8CDE91A01DDE90C23ED
:1017C0001046194603F07EF8CDE90601DDE90E2347
:1017D00003F072F800224FF08043CDE9080103F0D6
:1017E00071F8CDE90A01DDE91C2303F06BF8CDE9BE
:1017F000180102E00000F03F70E0DDE90C23104624
:10180000194603F05FF8CDE9080100204FF0804150
:10181000DDE90E2303F056F8CDE9000104F002FDE6
:10182000CDE90201DDE90C2303F04CF8CDE9040118
:10183000DDE90E2303F043F8CDE90601DDE90823D5
:1018400002F099FFCDE90A01DDE91C2303F03AF823
:10185000CDE91601DDE90C231046194603F032F8F4
:101860000022F44BCDE9060103F026F800224FF0E8
:101870008043CDE9080103F025F8CDE90A01DDE94F
:101880001C2303F01FF8CDE91401DDE90C231046F9
:10189000194603F017F802460020CDE908214FF061
:1018A000804104F0BFFCCDE90201DDE90C2303F027
:1018B00009F80022DF4BCDE9040103F000F8CDE97F
:1018C0000601DDE9082302F056FFCDE90A01DDE952
:1018D0001C2302F0F7FFCDE91201DFE0DDE90C2364
:1018E0001046194602F0EEFFCDE9080100204FF046
:1018F0008041DDE90E2302F0E5FFCDE9000104F0AF
:1019000091FCCDE90201DDE90C2302F0DBFFCDE91A
:101910000401DDE90E2302F02EFFCDE90601DDE929
:10192000082302F028FF02460B46CDE90A010020F9
:10193000C04903F039F8CDE91C01DDE90C2310465C
:10194000194602F0BFFFCDE9080100204FF08041A9
:1019500004F068FCCDE90201DDE90C2302F0B2FFDE
:101960000022B44BCDE9040102F005FFCDE90601E8
:10197000DDE9082302F0FFFECDE90A01DDE91C23C1
:1019800002F0A0FFCDE91A01DDE90C23104619464B
:1019900002F098FF0022A74BCDE9060102F08CFF70
:1019A00000224FF08043CDE9080102F08BFFCDE922
:1019B0000A01DDE91C2302F085FFCDE91801DDE90C
:1019C0000C231046194602F07DFFCDE908010020E6
:1019D0004FF0804104F026FCCDE90201DDE90C2343
:1019E00002F070FF0022934BCDE9040102F067FF83
:1019F000CDE90601DDE9082302F0BDFECDE90A01CB
:101A0000DDE91C2302F05EFFCDE91601DDE90C23C0
:101A10001046194602F056FFCDE90601DDE90E2316
:101A200002F04AFF00224FF08043CDE9080102F0A6
:101A300049FFCDE90A01DDE91C2302F043FFCDE9AE
:101A40001401DDE90C231046194602F03BFFCDE9F5
:101A5000080100204FF08041DDE90E2302F032FF43
:101A6000CDE9000104F0DEFBCDE90201DDE90C2344
:101A700002F028FFCDE90401DDE90E2302F01FFF8B
:101A8000CDE90601DDE9082302F075FECDE90A0182
:101A9000DDE91C2302F016FFCDE9120100BF00BFF3
:101AA0001E9ADDE91A01C2E902011E9ADDE9181049
:101AB000C2E904101E9ADDE91601C2E906011E9A68
:101AC000DDE91401C2E908011E9ADDE91201C2E94B
:101AD0000A011FB000BD70B504460D4625702046B2
:101AE000FFF74EF870BD70B5064614461D46C6E9B0
:101AF00012453046FFF744F870BD2DE9F041044629
:101B000015461E46206D02F0CCFF07463A460B46AE
:101B10002846314602F048FFC4E910012046FFF78D
:101B20002FF8BDE8F08170B5064614461D46C6E99B
:101B300016453046FFF724F870BD2DE9FC5F82465C
:101B40008B4614461D460EAE96E8C0038AF800B0D8
:101B50000C9802F0A6FF02460B46CDE90001204694
:101B6000294602F021FFCAE910010C98CAF850007A
:101B7000CAE91267CAE916895046FFF701F8BDE8BD
:101B8000FC9F2DE9F04F87B004468946484602F095
:101B9000A9FF8246D4E902733A4602F093FECDE9EA
:101BA0000401D4E90C733A4602F0E5FD05460E4601
:101BB0002A463346D4E90871384602F083FECDE95F
:101BC0000401484602F08EFF8246D4E904733A4687
:101BD00002F078FECDE90001D4E90E733A4602F036
:101BE000CAFDCDE90201DDE9042302F065FEC4E986
:101BF0000C012A463346D4E90A71384602F062FEE7
:101C0000CDE90401484602F06DFF8246D4E906732F
:101C10003A4602F057FECDE90201DDE9042302F065
:101C20004BFEC4E90E012846314602F087FF07B09B
:101C3000BDE8F08F0000F03F0346022A01D3501C9C
:101C400008B9002070470020186058609860D9607B
:101C50001A610120F6E702469068884201D200200E
:101C60007047106808441369984205D313681069D7
:101C7000C01A081A106002E01068084410609068EA
:101C8000401A90600120EBE7024613699068984281
:101C900001D1002070475368D068C1549068401C3F
:101CA00090605068401C50601069401E5368834229
:101CB00001D9002050600120ECE70246906890B105
:101CC0001368D068C05C08701068401C1060906891
:101CD000401E90601069401E1368834201D90020A5
:101CE0001060012070470020FCE72DE9F041044618
:101CF00088461546A06828442169884202D90020F8
:101D0000BDE8F08161682069401AA84215D2616877
:101D10002069461AAF1B6268E1688818324641465E
:101D200002F04FFC08EB06013A46E06802F049FC7D
:101D3000A0682844A060676014E02E466268E168ED
:101D400088183246414602F03CFCA0682844A06056
:101D5000354660682844606021696068884201D126
:101D6000002060600120CBE72DE9F04104460F46DA
:101D70001546A068A84202D20020BDE8F081216883
:101D80002069401AA84216D221682069461AA5EB9C
:101D900006082268E06881183246384602F011FCD5
:101DA000B8194246E16802F00CFCA068401BA06034
:101DB000C4F8008014E02E462268E068811832469C
:101DC000384602F0FEFBA068401BA0603546206844
:101DD0002844206021692068884201D100202060C9
:101DE0000120CAE701468868704701468A68086989
:101DF000801A704708B50121042000F0E7FC20207C
:101E0000ADF8000004208DF803006946014800F099
:101E100021FA08BD0008014010B56FF0040000F081
:101E20008CFF2E4800682E49B0FBF1F02D49087058
:101E30000846007800EB4001C1EBC0104FF6FF717F
:101E400001EAC0002849088010BD0146254A1278E1
:101E50004A434FF0E0235A6100229A611A46126900
:101E600042F001021A6100BF4FF0E022106900F059
:101E700001021AB100F48032002AF5D04FF0E022BE
:101E8000126922F001024FF0E0231A6100229A61E8
:101E900070470146144A12884A434FF0E0235A61C2
:101EA00000229A611A46126942F001021A6100BFCB
:101EB0004FF0E022106900F001021AB100F4803204
:101EC000002AF5D04FF0E022126922F001024FF013
:101ED000E0231A6100229A6170470000440000204C
:101EE00000127A00580000205A00002008B54FF474
:101EF000C06000F0D3FE1C208DF8000000208DF89B
:101F0000010001208DF802008DF80300684600F002
:101F1000CAFE08BD014600BF704700BF4B4A128889
:101F200002F04002002AF9D0C2B2484B1B1D1A80B1
:101F3000704710B586B00446012144F2040000F059
:101F400045FC424800F0A6FC4FF40070ADF81400C8
:101F500003208DF8160018208DF8170005A93C48BD
:101F600000F078F94FF48060ADF8140004208DF88B
:101F7000170005A9364800F06DF925208DF80000FE
:101F800003208DF801008DF8020001208DF8030078
:101F9000684600F088FE01940020ADF80800ADF816
:101FA0000A00ADF80C00ADF810000C20ADF80E00E2
:101FB00001A9264800F0B1FC002240F22551234837
:101FC00000F043FD0121214800F033FD06B010BDB3
:101FD00010B540F225511D4800F01CFE10B31B48FF
:101FE00000F098FDC4B21B48008800F40040C8B956
:101FF0001848008800F4804060B10A2C03D000200B
:102000001449088020E01348008840F4004011493A
:10201000088019E00D2C06D10E48008840F480405D
:102020000C49088010E00B480088C0F30D000A49F5
:102030000C5408480088401C06490880084600885F
:10204000C72801DD0020088010BD000000380140D5
:102050000008014060000020BC2F00200EB50121C7
:10206000880701F0BBFF40F69F70ADF804004720E1
:10207000ADF800000020ADF80600ADF8020069469A
:102080004FF0804001F074F901221146900701F0F1
:10209000E6FC0121880701F0C7FC0EBD00B587B042
:1020A00001214FF4017000F091FB4FF4004000F06B
:1020B000F1FA8020ADF8040000208DF8070001A996
:1020C000294800F0C7F8294800F056FE0020029089
:1020D0008DF80C008DF80D004FF460200490002066
:1020E000059001208DF8180002A9204800F06BFE31
:1020F00001211E4800F093FE1C4800F0B2FE00BF14
:102100001A4800F0B3FE0028FAD1184800F0B8FED3
:1021100000BF164800F0B9FE0028FAD1012113488B
:1021200000F0BDFE07B000BD10B5FFF7B7FFFFF729
:1021300095FF10BD70B504460025072301222146F6
:102140000A4800F0D8FE0121084800F0A8FE00BFB0
:102150000221064801F014F80028F9D0034800F0E5
:1021600031FF0546284670BD0008014000240140AB
:102170000648804706480047FEE7FEE7FEE7FEE721
:10218000FEE7FEE7FEE7FEE7FEE7FEE76B05000879
:102190003101000810B50446CC48844208D1012121
:1021A000042000F02DFB0021042000F029FB46E074
:1021B000C748844208D10121082000F021FB0021FA
:1021C000082000F01DFB3AE0C248844208D10121FA
:1021D000102000F015FB0021102000F011FB2EE074
:1021E000BD48844208D10121202000F009FB0021D4
:1021F000202000F005FB22E0B848844208D10121EC
:10220000402000F0FDFA0021402000F0F9FA16E02D
:10221000B348844208D10121802000F0F1FA002166
:10222000802000F0EDFA0AE0AE48844207D1012197
:10223000801500F0E5FA0021A01500F0E1FA10BDCC
:1022400010B50121084600F0DBFA0021012000F062
:10225000D7FA10BD2DE9F0410246002500260020E6
:1022600000230024002791F803C00CF00F0591F81B
:1022700003C00CF0100CBCF1000F03D091F802C0A9
:102280004CEA050591F800C0BCF1000F31D014688C
:1022900000202BE04FF0010C0CFA00F3B1F800C065
:1022A0000CEA03069E4220D183004FF00F0C0CFA7B
:1022B00003F7BC4305FA03FC4CEA040491F803C09D
:1022C000BCF1280F06D14FF0010C0CFA00FCC2F84B
:1022D00014C00AE091F803C0BCF1480F05D14FF0DB
:1022E000010C0CFA00FCC2F810C0401C0828D1D325
:1022F0001460B1F800C0BCF1FF0F34DD5468002059
:102300002EE000F1080C4FF0010808FA0CF3B1F8C8
:1023100000C00CEA03069E4221D183004FF00F0C4F
:102320000CFA03F7BC4305FA03FC4CEA040491F8E9
:1023300003C0BCF1280F05D100F1080C08FA0CF815
:10234000C2F8148091F803C0BCF1480F07D100F126
:10235000080C4FF0010808FA0CF8C2F81080401C75
:102360000828CED35460BDE8F0814FF6FF7101809C
:10237000022181700421C1707047024600209368D9
:102380000B400BB1012000E0002070470146886837
:1023900080B2704702460020D3680B400BB1012089
:1023A00000E0002070470146C86880B270470161B4
:1023B0007047416170470AB1016100E041617047B7
:1023C000C16070474FF480320A438261816182614B
:1023D00082698269704702460020434B18684FF6B5
:1023E0008073184040EA021008433F4B1860704762
:1023F0003E49C8617047F0B50A4600230024002119
:10240000002500F00046B6F1004F02D1364EF169CA
:1024100001E0354E7168C0F3034583B200F4401605
:10242000B6F5401F08D121F070612F4E766826F076
:1024300070662D4F7E6012E000F48016B6F5801FA6
:1024400006D1032606FA05F4A14341F0706106E0C7
:10245000460D360103FA06F6B14341F0706122B130
:10246000460D360103FA06F6314300F00046B6F198
:10247000004F02D11C4EF16101E01B4E7160F0BDB6
:1024800030B500228B071C0F0F2303FA04F2164B02
:1024900008338C1053F824309343134C08348D10B8
:1024A00044F8253023468C1053F824308C07240F31
:1024B00000FA04F423430C4C08348D1044F8253002
:1024C00030BD0A49DC310860704700000008014057
:1024D000000C0140001001400014014000180140B0
:1024E000001C01400020014000000140000020428B
:1024F000DF48006840F00100DD4908600846406898
:10250000DC490840DA49486008460068DA49084072
:10251000D74908600846006820F480200860084613
:10252000406820F4FE0048604FF41F008860704748
:10253000CF49096821F48031CD4A116011460968FC
:1025400021F480211160B0F5803F03D0B0F5802FD9
:102550000ED106E0C649096841F48031C44A1160D1
:1025600007E0C349096841F4A021C14A116000E0B5
:1025700000BF00BF704710B50146002200230020B5
:102580004A11012A02D1BA4C236806E0022A02D17C
:10259000B74C236A01E0B64C636A01F01F020124C4
:1025A00094401C400CB1012000E0002010BD38B563
:1025B000002000900024002500BF3120FFF7DBFF42
:1025C00005460098401C00900098B0F5A06F01D01F
:1025D000002DF2D03120FFF7CEFF08B1012400E03A
:1025E0000024204638BD01460020A14A106820F092
:1025F000F80040EAC10010607047A04908607047C9
:10260000024600209A4B586820F47C1042EA0103ED
:102610001843974B586070479849086670470146C1
:102620000020934A506820F0030008435060704730
:102630008F48406800F00C007047014600208C4A2B
:10264000506820F0F00008435060704701460020B9
:10265000874A506820F4E0600843506070470146A4
:102660000020834A506820F4605040EAC100506066
:10267000704729B17E4A527A02437D4B5A7204E078
:102680007B4A527A82437A4B5A7270477B49D831DF
:102690000860704701460020754A506820F44040A9
:1026A0000843506070470021714A20321170704A0F
:1026B00082F82010012802D004280AD104E0012168
:1026C0006B4A2032117005E00521694A20321170F1
:1026D00000E000BF00BF7047694908607047644967
:1026E000096A0143624A11627047654944390860CA
:1026F000704730B500210022002400235C4D6D6836
:1027000005F00C0121B1042905D0082923D105E0E9
:102710005C4D056022E05B4D05601FE0544D6D6827
:1027200005F47012524D6D6805F48034022505EBF6
:1027300092421CB9544D554305600BE04C4D6D68F9
:1027400005F400351DB1504D5543056002E04D4D77
:102750005543056002E04B4D056000BF00BF444D8E
:102760006D6805F0F0010909484D6B5C0568DD40B6
:1027700045603F4D6D6805F4E061090A434D6B5CAF
:102780004568DD4085603A4D6D6805F46051C90AC1
:102790003E4D6B5C4568DD40C560354D6D6805F4A8
:1027A0004041890B3A4D6B5CC568B5FBF3F505619B
:1027B00030BD29B12E4A526902432D4B5A6104E0C3
:1027C0002B4A526982432A4B5A61704729B1284AE1
:1027D00092690243264B9A6104E0254A926982433A
:1027E000234B9A61704729B1214AD2690243204B99
:1027F000DA6104E01E4AD26982431D4BDA617047F8
:1028000029B11B4AD2680243194BDA6004E0184A26
:10281000D2688243164BDA60704729B1144A1269B4
:102820000243134B1A6104E0114A12698243104BB0
:102830001A61704712494039086070470F49C864EF
:1028400070470B49C87170470948406A40F0807072
:1028500007494862704701460020054A92680A40CD
:102860000AB1012000E000207047014988727047DA
:10287000001002400000FFF8FFFFF6FE0000424299
:102880008004424200127A0000093D0062000020EC
:102890007200002010B50446FB48844209D1012192
:1028A0008803FFF7ADFF00214FF48040FFF7A8FF3A
:1028B00032E0F648844209D101214804FFF7ADFF18
:1028C00000214FF40030FFF7A8FF25E0F0488442D4
:1028D00009D101218804FFF7A0FF00214FF48020D7
:1028E000FFF79BFF18E0EB48844209D10121C8049F
:1028F000FFF793FF00214FF40020FFF78EFF0BE05E
:10290000E548844208D101210805FFF786FF002130
:102910004FF48010FFF781FF10BD2DE9F04786B01E
:1029200005460E460024A24600BFA1460027B089F6
:1029300000B100BF2F462C8A4CF6FF700440F0888F
:1029400004432C82AC894EF6F3100440B0883189E0
:102950000843718908430443AC81AC8A4FF6FF40B9
:102960000440B0890443AC8201A8FFF7C2FEC64808
:10297000874202D1DDF810A001E0DDF80CA0A889A3
:1029800000F4004040B10AEBCA0000EB0A103168C5
:102990004900B0FBF1F807E00AEBCA0000EB0A10AF
:1029A00031688900B0FBF1F86420B8FBF0F0040155
:1029B0002009642101FB1089A88900F4004040B17E
:1029C000322000EBC900B0FBF1F000F00700044337
:1029D00008E0322000EB09106421B0FBF1F000F0B8
:1029E0000F0004432C8106B0BDE8F0874FF4165168
:1029F000016000218180C18001810C214181002181
:102A00008181704710B502460020108A4FF2FF0303
:102A100018400B884C8823438C882343CC8823435D
:102A20001843108210BD0021018041808180C18047
:102A3000704721B1828942F40052828104E0828988
:102A40004DF6FF731A4082817047F0B503460024AB
:102A500000260025002040F66A17B94200D100BFC9
:102A60001846C1F3421401F01F06012707FA06F5C4
:102A7000012C01D10C3004E0022C01D1103000E017
:102A800014301AB107682F43076002E00768AF43AC
:102A90000760F0BD1AB1838A0B43838202E0838A08
:102AA0008B4383827047028A4FF6F0731A4002828A
:102AB000028A0A430282704782894FF2FF731A40EA
:102AC000828182890A438281704721B1828942F0E2
:102AD0000202828104E082894FF6FD731A408281EE
:102AE0007047028A4FF6DF731A400282028A0A4355
:102AF0000282704721B1028A42F48042028204E0DD
:102B0000028A4BF6FF731A4002827047C1F3080233
:102B10008280704701468888C0F308007047818929
:102B200041F0010181817047028BD2B20283028B96
:102B300042EA012202837047028B02F47F42028341
:102B4000028B0A430283704721B1828A42F020023D
:102B5000828204E0828A4FF6DF731A4082827047D5
:102B600021B1828A42F01002828204E0828A4FF60A
:102B7000EF731A408282704721B1828A42F00802C4
:102B8000828204E0828A4FF6F7731A40828270478D
:102B900021B1828942F40042828103E08289C2F33A
:102BA0000E028281704721B1828A42F400628282E1
:102BB00004E0828A4FF2FF731A4082827047828A51
:102BC0004FF6FB731A408282828A0A4382827047E0
:102BD00021B1828A42F00202828204E0828A4FF6A8
:102BE000FD731A408282704702460020B1F5007FD3
:102BF00000D100BF13880B400BB1012000E0002082
:102C0000704701F40072B2F5007F00D100BFCA43E3
:102C10000280704770B50246002400230025002082
:102C200040F66A16B14200D100BFC1F3421501F06F
:102C30001F03012606FA03F3012D02D196893340C2
:102C400006E0022D02D1168A334001E0968A334015
:102C50000C12012606FA04F41688344013B10CB1A4
:102C6000012000E0002070BD10B50022002340F6D6
:102C70006A14A14200D100BF0A1201249440A3B2F9
:102C8000DC43048010BD00000038014000440040D7
:102C900000480040004C00400050004031490143D2
:102CA000314A1160704770B5002100230F22C478AB
:102CB00004B32D4C246804F4E064C4F5E064210AF4
:102CC000C1F10403CA40447804FA03F18478144043
:102CD00021430901254C0678A155047804F01F050D
:102CE0000124AC4005786D11AD0005F1E025C5F873
:102CF000004109E0047804F01F050124AC401C4D9C
:102D00000678761145F8264070BD1A4A0A400243FB
:102D1000154B1B1F1A60704739B1134A121D1268F8
:102D20000243114B1B1D1A6006E00F4A121D126868
:102D300082430D4B1B1D1A607047042808D14FF0C9
:102D4000E021096941F004014FF0E022116107E040
:102D50004FF0E021096921F004014FF0E0221161F8
:102D6000704700000000FA050CED00E000E400E010
:102D700080E100E080FFFF1F10B50446FA4884425E
:102D800008D101214015FFF73BFD00216015FFF739
:102D900037FD17E0F548844208D101210015FFF7FF
:102DA0002FFD00212015FFF72BFD0BE0F04884429A
:102DB00008D10121C803FFF723FD00214FF4004093
:102DC000FFF71EFD10BD30B50246002000235068FD
:102DD000E84C20400D790C6844EA052420435060FB
:102DE0009068E54C2040D1E902542C434D7944EAE7
:102DF000450420439060D06A20F470000C7C641E6F
:102E0000E4B2234340EA0350D06230BD00210160A8
:102E1000017141718160C16001210174704721B16C
:102E2000826842F00102826003E0826822F00102BF
:102E30008260704721B1826842F48072826003E050
:102E4000826822F480728260704710B50023CBB292
:102E50001AB144681C43446002E044689C434460E7
:102E600010BD816841F00801816070470146002073
:102E70008A6802F008020AB1012000E000207047D1
:102E8000816841F0040181607047014600208A6832
:102E900002F004020AB1012000E00020704721B1D5
:102EA000826842F4A002826003E0826822F4A002F9
:102EB00082607047014600208A6802F480020AB1ED
:102EC000012000E00020704710B50A4600210023D1
:102ED000416821F46041531E41EA4331416010BD15
:102EE00021B1426842F40062426003E0426822F489
:102EF000006242607047F0B504460D460020002194
:102F0000092D11DDE068A5F10A0606EB4607072644
:102F100006FA07F18843A5F10A0606EB460603FA0E
:102F200006F10843E0600CE0206905EB4507072641
:102F300006FA07F1884305EB450603FA06F1084354
:102F40002061072A0FDA606B561E06EB86071F26E4
:102F500006FA07F18843561E06EB860605FA06F1C7
:102F60000843606322E00D2A0FDA206BD61F06EBC0
:102F700086071F2606FA07F18843D61F06EB86064A
:102F800005FA06F10843206310E0E06AA2F10D069D
:102F900006EB86071F2606FA07F18843A2F10D0605
:102FA00006EB860605FA06F10843E062F0BD21B1A2
:102FB000826842F48012826003E0826822F4801208
:102FC000826070470146C86C80B2704766484C30DA
:102FD0000068704721B1426842F48062426003E0B9
:102FE000426822F480624260704721B1426842F434
:102FF0008052426003E0426822F48052426070478F
:103000000A460021816821F4E04111438160704744
:1030100021B1826842F40042826003E0826822F4B7
:1030200000428260704721B1826842F402128260DD
:1030300003E0826822F40212826070470146002099
:103040008A6802F400120AB1012000E000207047F3
:10305000F0B504461546002000220026092911DD9E
:10306000E068A1F10A0707EB470C072707FA0CF203
:103070009043A1F10A0707EB470703FA07F2104351
:10308000E0600CE0206901EB410C072707FA0CF225
:10309000904301EB410703FA07F210432061A06B54
:1030A000C0F30156EF1C06F1010CA7EB0C0707EB70
:1030B000870C1F2707FA0CF29043EF1C06F1010C56
:1030C000A7EB0C0707EB870701FA07F21043A06391
:1030D000F0BD10B50A4600210023816B21F4401198
:1030E000531E41EA0351816310BD08B500230093CC
:1030F0000090009B0B440093009B1A6008BD08B52C
:10310000024600200090009201F12800009B184424
:1031100000900098006880B208BD0A46002141680E
:10312000164B1940114341607047416282627047FB
:103130000A460021416821F01F0111434160704798
:1031400040B109490831096841F40001064A0832D2
:10315000116007E004490831096821F40001024ABE
:10316000083211607047000000240140002801402F
:10317000003C0140FFFEF0FFFDF7F1FFFFFD3FFFC8
:103180000246002013680B400BB1012000E0002034
:103190007047CA430260704770B5024600200023A2
:1031A00000240B125568CEB205EA060415681D40CE
:1031B00015B10CB1012000E0002070BD00220A1200
:1031C000D34303607047000010B50446FE488442B4
:1031D00008D10121C014FFF713FB0021E014FFF711
:1031E0000FFBC4E0B4F1804F08D101210846FFF77E
:1031F00014FB00210120FFF710FBB8E0F3488442E4
:1032000008D101210220FFF708FB00210220FFF76F
:1032100004FBACE0EE48844208D101210420FFF712
:10322000FCFA00210420FFF7F8FAA0E0E948844204
:1032300008D101210820FFF7F0FA00210820FFF74C
:10324000ECFA94E0E448844208D101211020FFF711
:10325000E4FA00211020FFF7E0FA88E0DF4884421A
:1032600008D101212020FFF7D8FA00212020FFF704
:10327000D4FA7CE0DA48844208D101214014FFF7F7
:10328000BFFA00216014FFF7BBFA70E0D548844212
:1032900009D10121C804FFF7B3FA00214FF400203F
:1032A000FFF7AEFA63E0D048844209D10121080556
:1032B000FFF7A6FA00214FF48010FFF7A1FA56E0BD
:1032C000CA48844209D101214805FFF799FA002133
:1032D0004FF40010FFF794FA49E0C548844208D142
:1032E00001214020FFF799FA00214020FFF795FACD
:1032F0003DE0C048844208D101218020FFF78DFACB
:1033000000218020FFF789FA31E0BB48844208D1D0
:1033100001218015FFF781FA0021A015FFF77DFA42
:1033200025E0B648844209D101210804FFF768FA74
:1033300000214FF48030FFF763FA18E0B048844270
:1033400009D101214804FFF75BFA00214FF4003056
:10335000FFF756FA0BE0AB48844208D101218804FC
:10336000FFF74EFA00214FF48020FFF749FA10BD15
:1033700000220288944B98420ED0994B98420BD071
:10338000B0F1804F08D0914B984205D0904B9842B5
:1033900002D0904B984204D14FF68F731A404B885D
:1033A0001A438D4B984207D08C4B984204D04FF66D
:1033B000FF431A40CB881A4302808B8883850B8891
:1033C0000385814B98420BD0854B984208D08B4B9C
:1033D000984205D08A4B984202D08A4B984201D13C
:1033E0000B7A038601238382704770B50024002284
:1033F0000023058C4FF6FE7635400584028C8388C9
:10340000048B4FF68F752C40B51E2C400D882C4335
:10341000751E2A400D892A434D882A436A4DA842C9
:103420000BD06F4DA84208D0744DA84205D0744D02
:10343000A84202D0734DA84213D14FF6F7752A4027
:103440004D892A434FF6FB752A408D882A434FF653
:10345000FF652B404FF6FF552B408D892B43CD89BF
:103460002B4383800483CD888586028470BD70B52C
:10347000002400220023058C4FF6EF7635400584AA
:10348000028C8388048B48F6FF752C404FF6FF456D
:103490002C400D884FF6FF7606EA05252C434FF6A3
:1034A000DF752A400D8906EA05152A434D8806EA8C
:1034B00005152A43444DA84202D0494DA8421DD1CA
:1034C0004FF67F752A404D894FF6FF7606EA0515BF
:1034D0002A434FF6BF752A408D8806EA05152A4310
:1034E0004FF6FF352B404FF2FF752B408D8906EAD2
:1034F00085052B43CD8906EA85052B43838004830C
:10350000CD880587028470BD70B500240022002399
:10351000058C4FF6FF6635400584028C8388848BCA
:103520004FF68F752C404FF6FC752C400D882C43C0
:103530004FF6FF552A400D894FF6FF7606EA05251E
:103540002A434D8806EA05252A431F4DA84202D08A
:10355000234DA8421DD14FF2FF752A404D894FF6E9
:10356000FF7606EA05252A434FF6FF352A408D8867
:1035700006EA05252A434EF6FF752B404DF6FF75EA
:103580002B408D8906EA05152B43CD8906EA0515E2
:103590002B4383808483CD888587028470BD70B57A
:1035A000002200230024058C4EF6FF76354005846A
:1035B000038C8488828B48F6FF752A404FF6FF45BE
:1035C0002A400D8820E00000002C0140000400404B
:1035D00000080040000C00400010004000140040B3
:1035E00000340140004C01400050014000540140B3
:1035F00000180040001C0040002000400040014036
:1036000000440140004801404FF6FF7606EA0525D8
:103610002A434DF6FF752B400D8906EA05352B43ED
:103620004D8806EA05352B43FA4DA84202D0FA4DE3
:10363000A84208D14BF6FF752C408D894FF6FF76D6
:1036400006EA85152C4384808283CD88A0F84050FB
:10365000038470BD828B4FF2FF331A408283828BCA
:103660004FF6FF7303EA01231A4382837047F0B5D4
:103670000C461546002200210026078C4EF6FF7CE2
:1036800007EA0C070784828B018C4FF6FF7707EA65
:10369000043640F6FF473A404FF6FF7707EA052722
:1036A0003A434FF6FF7707EA03373A43D94FB84218
:1036B0000ED0D94FB8420BD0B0F1804F08D0D74FC1
:1036C000B84205D0D64FB84202D0D64FB84206D144
:1036D0004DF6FF77394046F48057394305E047F609
:1036E000FF57394044F48057394382830184F0BD49
:1036F000828B4FF6F3731A408283828B0A43828354
:103700007047F0B50C461546002200210026078CB4
:103710004FF6FF6C07EA0C070784828B018C4FF68B
:10372000FF7707EA04264FF60C773A404FF6FF770B
:1037300007EA03172F433A43B64FB8420ED0B64FAD
:10374000B8420BD0B0F1804F08D0B44FB84205D08A
:10375000B34FB84202D0B34FB84206D14FF6FF572D
:10376000394046F48077394305E04FF2FF5739403E
:1037700044F48077394382830184F0BD028B4FF299
:10378000FF331A400283028B4FF6FF7303EA0123D3
:103790001A4302837047F0B50C46154600220021FB
:1037A0000026078C4FF6EF7C07EA0C070784028B94
:1037B000018C4FF6FF7707EA041640F6FF473A40C0
:1037C0004FF6FF7707EA03373A434FF6FF7707EAEA
:1037D00005273A438F4FB8420ED08F4FB8420BD0D7
:1037E000B0F1804F08D08D4FB84205D08C4FB84211
:1037F00002D08C4FB84206D14FF6DF77394046F001
:103800001007394305E04FF65F77394044F0100761
:10381000394302830184F0BD028B4FF6F3731A40E3
:103820000283028B0A4302837047F0B50C461546AB
:1038300000220021068C4FF6FE773E400684028B64
:10384000018C4FF60C7632407E1C06EA03162E439E
:103850003243704EB0420ED06F4EB0420BD0B0F13A
:10386000804F08D06D4EB04205D06D4EB04202D0B0
:103870006C4EB04206D14FF6FD76314044F0010661
:10388000314305E04FF6F576314044F0010631430F
:1038900002830184F0BD70B505460C465D48854243
:1038A0000ED05D4885420BD0B5F1804F08D05B4803
:1038B000854205D05A48854202D05A48854200D1F7
:1038C00000E000BF208850B92389A288618828467B
:1038D000FFF7ABFFE1882846FFF79EFF25E0208831
:1038E00004280AD12389A28861882846FFF753FF5C
:1038F000E1882846FFF742FF17E0208808280AD110
:103900002389A28861882846FFF7FBFEE1882846C4
:10391000FFF7EEFE09E02389A28861882846FFF7B9
:10392000A6FEE1882846FFF795FE70BD2DE9F0411F
:1039300005460C4600260127608808B9022600E0EB
:103940000026A088012801D1022700E00127208855
:10395000A0B92389A28861882846FFF766FFE1881D
:103960002846FFF759FF23893A4631462846FFF794
:1039700012FFE1882846FFF701FF13E02389A288A0
:1039800061882846FFF707FFE1882846FFF7F6FE23
:1039900023893A4631462846FFF747FFE188284603
:1039A000FFF73AFFBDE8F0810A884B881A438B88FD
:1039B0001A43CB881A430B891A434B891A438B89C4
:1039C0001A43A0F8442070474FF6FF718180002110
:1039D0000180C180418001727047002101804180D7
:1039E0008180C180018141818181C1817047002135
:1039F00001804180012181800021C18001817047C7
:103A00000021018041808180C180018141818181CB
:103A100070470000002C01400034014000040040C9
:103A200000080040000C004021B1028842F0010271
:103A3000028004E002884FF6FE731A40028070474D
:103A400031B1B0F8442042F40042A0F8442005E02F
:103A5000B0F84420C2F30E02A0F8442070471AB117
:103A600083890B43838102E083898B438381704781
:103A70008182704741EA0203A0F8483070471AB1CA
:103A800083890B43838102E083898B438381704761
:103A900001894FF6F8721140018170470A460021F2
:103AA00001894FF68F73194011430181704730B57A
:103AB00004460D4629462046FFF7F0FF208940F0D6
:103AC0000700208130BD2DE9F04104460D46164621
:103AD0001F46602D06D13B46012231462046FFF7A6
:103AE0005AFE05E03B46012231462046FFF79DFE87
:103AF00029462046FFF7D2FF208940F007002081A9
:103B0000BDE8F08130B50C4600210189C9B24FF6FD
:103B1000FF7505EA0325154325432943018130BD7F
:103B20002DE9F04105460E461746984600244346C7
:103B30003A4631462846FFF7E5FF2C894FF6F870E4
:103B4000044044F007044FF68F70044044F07004C2
:103B50002C81BDE8F081F0B504460D4616461F469F
:103B60003B46324629462046FFF7CCFF208940F4E9
:103B700080402081F0BD0185828270470A46002185
:103B800001884FF68F731940114301807047F0B5DB
:103B90000C4615461E460021002200230189028B97
:103BA000038C4FF6F877394021434FF6FC473A40F3
:103BB00040F201173A434FF6DD773B404FF6FF776F
:103BC00007EA06172F433B43018102830384F0BDBC
:103BD0000A460021018B4FF68F7319401143018370
:103BE00070470A460021018B48F6FF7319404FF6D3
:103BF000FF7303EA02231943018370470A46002139
:103C0000818B4FF68F7319401143818370470A46A9
:103C10000021818B48F6FF7319404FF6FF7303EACA
:103C2000022319438183704721B1028842F0800248
:103C3000028004E002884FF67F731A4002807047CA
:103C400021B1828842F00402828004E082884FF62B
:103C5000FB731A408280704721B1828842F00802CB
:103C6000828004E082884FF6F7731A4082807047A2
:103C700021B1828842F00102828004E082884FF6FE
:103C8000FE731A40828070470A460021018B4FF66E
:103C9000F77319401143018370470A460021018BD5
:103CA0004FF2FF7319404FF6FF7303EA02231943E3
:103CB000018370470A460021818B4FF6F773194044
:103CC0001143818370470A460021818B4FF2FF73B5
:103CD00019404FF6FF7303EA0223194381837047AB
:103CE0000A460021018B4FF6FB73194011430183F3
:103CF00070470A460021018B4FF6FF3319404FF6FB
:103D0000FF7303EA02231943018370470A46002127
:103D1000818B4FF6FB7319401143818370470A462C
:103D20000021818B4FF6FF3319404FF6FF7303EAF2
:103D300002231943818370470A460021018B4FF605
:103D40007F7319401143018370470A460021018B9C
:103D5000C1F30E014FF6FF7303EA022319430183F7
:103D600070470A460021818B4FF67F73194011433B
:103D7000818370470A460021818BC1F30E014FF603
:103D8000FF7303EA02231943818370470A46002127
:103D9000018C4FF6FD7319401143018470470A46A8
:103DA0000021018C4FF6F7731940114301847047CD
:103DB0000A460021018C4FF6DF7319404FF6FF735E
:103DC00003EA02131943018470470A460021018C5B
:103DD0004FF67F7319404FF6FF7303EA021319433E
:103DE000018470470A460021018C4FF6FF531940A9
:103DF0004FF6FF7303EA02231943018470470A4612
:103E00000021018C4FF2FF7319404FF6FF7303EA54
:103E100002231943018470470A460021018C4DF6A4
:103E2000FF7319404FF6FF7303EA0233194301840D
:103E3000704730B5002301248C40A3B2048C9C430E
:103E40000484048C02FA01F5ADB22C43048430BD25
:103E500030B5002304248C40A3B2048C9C4304841A
:103E6000048C02FA01F5ADB22C43048430BD70B568
:103E70000346002000241846183001258D40ACB2BE
:103E80001D8CA5431D8409B1082909D100EB6100EF
:103E9000056825F0700505600568154305600EE0AE
:103EA0000D1FC5F34E052844056825F4E04505605F
:103EB00005684FF6FF7606EA02263543056070BDB9
:103EC00021B1028842F00202028004E002884FF62B
:103ED000FD731A400280704721B1028842F004024B
:103EE000028004E002884FF6FB731A40028070479C
:103EF00021B1828842F08002828004E082884FF6FD
:103F00007F731A408280704702884FF6F7731A4019
:103F1000028002880A430280704782884FF68F73BE
:103F20001A40828082880A438280704702894FF655
:103F3000F8731A40028102890A430281704702899C
:103F40004FF67F731A40028102890A43028170474B
:103F500081847047818570478186704701877047EB
:103F600081877047A0F84010704702884FF6FF43E2
:103F70001A40028002880A43028070470146888EF8
:103F800070470146088F70470146888F7047014689
:103F9000B1F8400070470146888C70470146088D93
:103FA000704702460020138A0B400BB1012000E04D
:103FB00000207047CA430282704730B50246002095
:103FC00000230024158A05EA0103958905EA010406
:103FD00013B10CB1012000E0002030BDCA430282C1
:103FE000704700002DE9F04F4FF0000C4FF0000338
:103FF00001EB1C6EBEF90250BEF900400EF5807E4A
:10400000BEF90290BEF900800EF5807EBEF9027006
:10401000BEF900600EF5807EBEF902B0BEF900A0C8
:104020000EF5807ED044D944A8EB4A0AA9EB4B0B8D
:104030004FEAA4044FEAA50504EBA60405EBA70587
:10404000A4EB6606A5EB670704EBA80405EBA9053E
:10405000A4EB6808A5EB690906EBAB06A7EBAA077A
:10406000A6EB6B0B07EB6A0A458020F8044B4780F0
:1040700020F8046BA0F8029020F8048BA0F802A0AE
:1040800020F804BB03F1010393FAA3FC402BAFD14A
:10409000A0EB82014FF0100312090FF2361000F16D
:1040A000000006B403EB430C6144A2F5803202EB3E
:1040B0008332B1F90250B1F90040A1EB0301B0F92C
:1040C00002B0B0F900A000F10400A5EB040E0EFB55
:1040D0000BFC0AEB4B0E05FB0ACB04FB0ECAB1F935
:1040E0000250B1F90040A1EB0301B0F90290B0F920
:1040F000008000F10400A5EB040E0EFB09FC08EBA8
:10410000490E05FB08C904FB0EC8B1F90250B1F90C
:104110000040A1EB0301B0F90270B0F9006000F1BA
:104120000400A5EB040E0EFB07FC06EB470E05FB97
:1041300006C704FB0EC6B1F90250B1F9004001F107
:104140000001D044D944A8EB4A0AA9EB4B0B4FEA33
:10415000A4044FEAA50504EB264405EB2745A4EB90
:10416000E636A5EBE73704EB284405EB2945A4EB3D
:10417000E838A5EBE93906EB2B46A7EB2A47A6EB77
:10418000EB3B07EBEA3A4D800C8019444F800E80E0
:104190001944A1F80290A1F800801944A1F802A0E6
:1041A00021F804BBB2F5803283DA03EB430C61449F
:1041B000A2F101025FEA024E18BFA0EB0C007FF4EF
:1041C00076AF06BC4FEA830392087FF46AAFBDE87E
:1041D000F08F0040000000400000004000005DDD66
:1041E000213BA3227E180000412D7EA5412D000019
:1041F000412D00C000405DDD82E75DDD213B7EA5F5
:10420000412D004000000040000000400000AA2AAC
:1042100094126B39460649327C0CA8118E23493220
:104220007C0CA3227E1821F77931AA2A9412A811B6
:104230008E235DDD213BA3227E180000412D95C613
:10424000B13F461A2B1E58EE3735BEB4C53EA811F5
:104250008E235DDD213B63A97138DF089A28B7CD35
:10426000C53E7EA5412D0000412D00C0004063A940
:104270002B1E21F77931BEB4C53EBEB47C0C58EE7E
:10428000373561AC213B95C6BAF9BAE571383BA721
:1042900037355DDD82E75DDD213B7EA5412D21F7D0
:1042A00066D756D53F3D3BA78E23A811C9CAB7CDC7
:1042B000C53E61AC7E18AA2AC1C295C6B13FBEB444
:1042C0007C0C0040000000400000004000001E3B4D
:1042D000B504693E9201C83C2403EB356409C83C2F
:1042E00024036B3946066C30060E1E3BB504EB35D5
:1042F0006409AA2A94126B39460649327C0CAE2412
:104300000917AF37D607882E8D0F7E1E5D1BEB3544
:104310006409AA2A941224188C1F1E34F10AB326A9
:104320009015A8118E2349327C0CA3227E18140B01
:1043300060276C30060E7E1E5D1B7104FB2A882EE2
:104340008D0F461A2B1EC7FD5A2E9D2C1211FE15DD
:10435000E72021F77931AA2A9412A8118E2387F039
:104360005334B2281314480D202602EAE536B3264A
:104370009015DF089A289CE32B39AE2409177104A5
:10438000FB2A5DDD213BA3227E180000412D4ED784
:10439000C53C9320EF198FFB6C2F78D1153E7E1E04
:1043A0005D1B21F77931E2CB0F3F641CC61CB8F2CC
:1043B000683395C6B13F461A2B1E58EE373597C164
:1043C000FB3F24188C1F02EAE536F0BCEC3FFE15DB
:1043D000E720BAE57138A6B8853FD5133D2282E1C2
:1043E000DB39BEB4C53EA8118E235DDD213B40B153
:1043F000AF3D790FDA244DD9423C2EAE423C480DF8
:10440000202656D53F3D8EAB823A140B602778D1DB
:10441000153E63A97138DF089A28B7CDC53EB1A70C
:104420001236A906CE2915CA4F3F78A66833710403
:10443000FB2A95C6B13FBCA576303902212C38C382
:10444000EC3F7EA5412D0000412D00C00040BCA5E1
:10445000CE29C7FD5A2EF0BCEC3F78A620268FFB54
:104460006C2F09BAB13FB1A73D2257F976304DB74D
:104470004F3F63A92B1E21F77931BEB4C53E8EABE9
:10448000EF19ECF474325EB2153E2EAE9015B8F210
:1044900068332DB03F3D40B1121187F053342EAE3A
:1044A000423CBEB47C0C58EE373561AC213BA6B81B
:1044B000D6072BEC1236C8AADB39F0BC240302EA7B
:1044C000E53663A9713897C16EFEDCE7B03734A8D2
:1044D000E53695C6BAF9BAE571383BA73735E2CB70
:1044E0000FF59CE32B3978A6683378D173F082E11D
:1044F000DB39EDA579314ED7EDEB6DDF823A99A529
:104500006C2F5DDD82E75DDD213B7EA5412D9CE3C7
:104510003AE352DBB63B99A5FB2A02EA19DF4DD9F3
:10452000423CEDA59A2887F026DB4ED7C53C78A6FD
:10453000202621F766D756D53F3D3BA78E23C7FDE2
:10454000DFD363D3AF3D34A8E720710494D078D192
:10455000153E63A92B1E140B8CCD94CF723EC8AAB6
:104560005D1BA811C9CAB7CDC53E61AC7E18241821
:1045700050C8E2CB0F3F2EAE90157E1E25C615CA41
:104580004F3F2DB09412AE244AC451C8853F5EB24D
:104590008D0FAA2AC1C295C6B13FBEB47C0C6C3047
:1045A0008EC1E2C4D43F4DB76409EB35B1C038C306
:1045B000EC3F09BA46061E3B2CC097C1FB3FF0BC3E
:1045C000240340EA01039B0703D009E008C9121F36
:1045D00008C0042AFAD203E011F8013B00F8013BBD
:1045E000521EF9D27047F0B480EA0102D40F4200A3
:1045F000B2EB410F02D20246084611464A0042D0B1
:10460000C30DDDB2C1F3C752AD1A202D35DAC1F3A7
:10461000160141F4000204B15242C5F1200602FA2B
:1046200006F12A411044B3EBD05F23D0C4B1012D71
:10463000A0EBC35009DCF0BC4FF0004202EAC352C9
:10464000DBB200F5000000F0F0BA400000F180702D
:1046500000EBC350A0F1807040EAD170490009E03E
:10466000490841EAC071A0EBC35000F500004008C2
:1046700000EBC350F0BC00F0CFBA6142012202EB64
:104680004101001BF6E7F0BC704781F00041AAE74A
:1046900080F00040A7E780EA010210B502F0004375
:1046A000400022D04A001FD0010E01EB1261C0F37E
:1046B0005600C2F3560240F4000042F40002A0FB90
:1046C000022000047F39140400D0401C50EA12403C
:1046D00001D44000491EC2B20C0604EBD010401CAD
:1046E0004008802A02D003E0002010BD20F0010025
:1046F000002900DA0020184310BD30B480EA01021E
:1047000002F0004530F0004221F0004013D090B19B
:10471000C30DD40DC2F31601C0F31600E41A41F420
:10472000000140F400027D34914201D3641C00E09A
:104730004900002C02DA30BC002070474FF4000022
:104740000023914201D3891A034340084FEA4101F3
:10475000F7D151B1914202D14FF0004105E002D2B0
:104760004FF0010101E06FF0010103EBC450284458
:1047700030BC00F051BA2DE9FE4F804681EA0300BB
:10478000C00F0C46009021F0004123F00045B8EB2B
:104790000200A94105D24046214690461C460B46E0
:1047A000024623F00040104347D0270DC7F30A000C
:1047B000C3F30A510290401A019040286BDAC3F308
:1047C000130040F4801B0098924620B10023D2EBE6
:1047D000030A63EB0B0B01985946C0F140025046A7
:1047E00000F0F9F906460D4650465946019A00F088
:1047F00001FA10EB08006141002487EA115284EAB3
:10480000E7731A4340D0009A62B3019A012A4FEA33
:10481000075215DC001B61EB02014FF0004202EA77
:104820000752CDE90042001C41F5801132462B466B
:1048300000F038FA03B0BDE8F08F40462146F9E7B2
:10484000001B61EB0201001C41F5801300185B4165
:104850002018A2F5001747EB030140EAD570B619FE
:104860006D4111E06D084FEA360645EAC0754FEA22
:104870000752001B61EB0201001C41F58011490841
:104880004FEA30000019514132462B4603B0BDE8D3
:10489000F04F00F0F8B90098012240000023D0EB5F
:1048A000020263EBE073009821464FEAE074B8EB34
:1048B000000061EB0401E9E783F000435BE781F06E
:1048C000004158E72DE9FE4F81EA030404F000445B
:1048D00021F0004100944FF0000B23F0004350EA18
:1048E00001045ED052EA03045BD0C3F30A54C1F35F
:1048F0000A552C44A4F2F3340194A0FB0254C1F3F2
:10490000130141F48011C3F3130343F4801301FB3B
:10491000024400FB034E840A970A44EA815447EAA2
:104920008357A4FB076802958D0A05FB07854FEAAC
:10493000932C04FB0C542705029D4FEA065847EAC6
:104940001637B5EB08056EEB070C870E920E47EA9B
:10495000811742EA8312A7FB0201B6EB0B0164EB5D
:1049600000042B0D43EA0C335E1844EB1C50DA466E
:104970005146E7FB0201C5F313044FEA0B3343EA48
:1049800014534FEA0432019C43EA0603A4F10C04D9
:104990000294009CCDE900B400F084F903B0BDE8B6
:1049A000F08F00200146F9E72DE9F04D81EA03047C
:1049B00004F0004B21F0004514464FF0000A23F0AC
:1049C000004150EA050220D054EA01021DD0C5F38F
:1049D0000A570246C5F31303C1F31300C1F30A5685
:1049E00040F4801543F48013A7EB0608101BD6464D
:1049F00008F2FD3873EB050002D308F1010801E06D
:104A000092185B41B8F1000F03DA00200146BDE8BF
:104A1000F08D00204FF48011064684460EE0171BEF
:104A200073EB050705D3121B63EB050306434CEA42
:104A3000010C49084FEA300092185B4150EA010727
:104A4000EDD152EA030012D082EA040083EA0501A4
:104A5000084305D0101BAB4106D20122002306E01B
:104A600000224FF0004302E06FF0010253101AEBF6
:104A700006004CEB085110EB0A0041EB0B01BDE8BE
:104A8000F04D00F000B9C10F80EAE0700844CA0799
:104A90009623002100F0C9B896230022114600F0A9
:104AA000C4B80EB540F2334102910021CDE90011A6
:104AB0000A460B4600F0F6F803B000BD20F00040B7
:104AC000C10DC0F3160040F400007F2901DA002078
:104AD0007047962903DCC1F19601C84070479639AA
:104AE0008840704700F0004230F000400AD0C10D0D
:104AF00001F56071C0F3160042EA0151C208400797
:104B000011437047002001467047000030B5041E75
:104B100071F1000404DB4FF00044404264EB0101FA
:104B2000141E73F1000405DB1C464FF00043524293
:104B300063EB0403994208BF904230BD01F000438B
:104B400030B421F0004150EA010206D00A0DA2F56E
:104B50006072C1F31301002A02DC30BC00207047F0
:104B6000440F44EAC104C100E01830BC00EBC2505D
:104B700000F052B82DE9F05F0546002092469B46B2
:104B800088460646814640241BE028464146474663
:104B9000224600F061F953465A46C01A914110D39B
:104BA00011461846224600F016F82D1A67EB010848
:104BB0004F4622460120002100F00DF817EB0009B6
:104BC0004E41201EA4F10104DFDC484631462A464E
:104BD0004346BDE8F09F202A04DB203A00FA02F1A8
:104BE000002070479140C2F1200320FA03F31943DB
:104BF00090407047202A06DBCB17203A41FA02F09A
:104C000043EAE07306E041FA02F3D040C2F1200229
:104C100091400843194670470029A8BF7047401CBF
:104C2000490008BF20F00100704710B4B0FA80FCC2
:104C300000FA0CF050EA010404BF10BC704749B1FF
:104C4000CCF1200421FA04F411FA0CF118BF01216F
:104C500021430843A3EB0C01CB1D4FEA00614FEA4F
:104C6000102042BF002010BC704700EBC35010441E
:104C70000029A4BF10BC7047401C490008BF20F0A9
:104C8000010010BC704710B5141E73F1000408DA5F
:104C9000401C41F1000192185B411A4301D120F000
:104CA000010010BD2DE9F04D92469B4611B1B1FABD
:104CB00081F202E0B0FA80F220329046FFF78BFFDB
:104CC00004460F4640EA0A0041EA0B0153465A46A1
:104CD000084313D0114653EA010019D0C8F140022D
:104CE000504600F0B9F805460E4650465946424631
:104CF000FFF771FF084305D0012004E02046394644
:104D0000BDE8F08D0020054346EAE0762C433743AA
:104D10000A986305E40AA0EB08000022FD0A44EAB1
:104D200047540A3002D500200146E9E70105101971
:104D30006941DDE9084500196941BDE8F04DA2E788
:104D400070B521F0004303430CD0C1F30A55002491
:104D5000D5EB040564EB0403D617AD1AB34102DBAF
:104D60000020014670BD201841EB025170BD2DE9B5
:104D7000F04D00231A461B1A8A4103DB002001462E
:104D8000BDE8F08DC1F30A52C1F3130141F480155F
:104D90004FF0000BD10702D100186D41521E0027C1
:104DA000044640F2FF11384601EB620A3E46804657
:104DB000024600204FF4801100F04EF8C2197141F4
:104DC000BB1846EB0100B4EB030C75EB000C04D3ED
:104DD000E41A65EB000517460E46241908F1010098
:104DE0006D4180463428E3DDF91946EB0600091BC6
:104DF000A84103D24FF0FF32134601E000221346D0
:104E00001BEB070046EB0A51BDE8F04DFFF73BBF37
:104E10000EB5C10F80EAE0700844CA07002140F2D5
:104E200033438DE80E000A460B46FFF73BFF03B005
:104E300000BD0000064C074D06E0E06840F00103AD
:104E400094E8070098471034AC42F6D3FBF774F9A6
:104E500090640008B0640008202A04DB203A21FA9C
:104E600002F00021704721FA02F3D040C2F1200283
:104E7000914008431946704770B5C1F30A5201F0DA
:104E800000450024C1F3130140F2FF3341F48011C7
:104E90009A4201DA002070BD40F233439A42A2F2F6
:104EA000334203DC5242FFF7D7FF00E090402C432F
:104EB000F1D0404270BD00000FB4054B10B503A9FE
:104EC000044A029800F0ACFB10BC5DF814FB000033
:104ED0001B1F00085C000020490050EAC12018BFD9
:104EE00004204A0D18BF40F0010040F2FF72B2EBFF
:104EF000515F08BF40F00200012808BF052070473D
:104F00002DE9F74F144694B00021C4E90211159918
:104F1000079121F00045C9498D4206DC1599C4E985
:104F2000000117B00020BDE8F08FC549DFF814A3D9
:104F3000A9423CDD0799C44E0029C44FC44A1599C3
:104F4000534619DDFFF7B8FC554506D0C14AC24BA0
:104F5000FFF7B2FCC4E900010AE04FF0D352BE4BA8
:104F6000FFF7AAFC32463B46FFF7A6FCC4E9000166
:104F700017B00120BDE8F08FFFF7FDFB554506D0C7
:104F8000B44AB54BFFF7F7FBC4E900010AE04FF064
:104F9000D352B14BFFF7EFFB32463B46FFF7EBFB3B
:104FA000C4E9000117B04FF0FF30BDE8F08FAB4906
:104FB000A942159978DB21F0004183468846A84A2A
:104FC000A84BFFF77FFC0022A74BFFF7D4FBFFF7AE
:104FD00053FF0990FFF71CFF06460F469C4A5346B5
:104FE000FFF770FC43465A46FFF769FC80468A4645
:104FF000984A994B30463946FFF764FC2A0D012543
:105000000B9242465346FFF75AFC032DC4E90001B8
:1050100039D00B98C1F30A51401A05EB45111139EB
:10502000814230DA9148C346784400EB0510CDF850
:105030000CA00C90D0E9002330463946FFF742FC23
:1050400002460B460491069058460399FFF734FC3C
:1050500080468A4602460B4658460399FFF72CFCC9
:10506000049B069AFFF728FC83460C980391394667
:10507000D0E902233046FFF725FC5A46039BFFF791
:105080001BFC6D1CBDE707980028A2BF099817B04C
:10509000BDE8F08F616881F000416160099817B048
:1050A0004042BDE8F08FFFE784461598C1F3130135
:1050B000C0F30A50A0F2F5304FEA601800F01F0666
:1050C000C6F12000139000200690079041F4801E46
:1050D00005206D4676B1664A08EB00017A4452F825
:1050E000213002EB8101B3404A68139922FA01F1A1
:1050F000194305E05F4908EB0002794451F822109A
:10510000A1FB0E27A1FB0C131A449A4234BF0123C2
:10511000002303EB070A05EB8003D3E901B70F4433
:105120008F4234BF0121002193448B4411B1934538
:1051300002D903E0934501D2012100E00021C3E937
:1051400001B7514445F82010011EA0F10100C1DC57
:105150000298059F00F10050800F12900298DDE93F
:1051600003568000FFF754FE834628460D91FFF753
:1051700098FC6FF01D02FFF7E3FDCDE90E0130460C
:10518000FFF78FFC6FF03D02FFF7DAFD80468A469D
:105190003846FFF786FC6FF05D02FFF7D1FD07464A
:1051A000424653461191FFF7E6FADDE90E23FFF779
:1051B000E2FA5A460D9BFFF7DEFA00250E465A46E4
:1051C00028460D9BFFF778FBDDE90E23FFF774FB04
:1051D00042465346FFF770FB3A46119BFFF76FFBC1
:1051E000DFF898A0244A5346FFF76CFB0746884631
:1051F000234A244B31462846FFF764FB3A46434690
:10520000FFF7B9FA074688464FF0A84253463146A1
:105210002846FFF757FB3A464346FFF7ACFA159A84
:1052200012F0004F04D0129A81F0004152421292C3
:10523000C4E90001129817B0BDE8F08FFB21E93FE7
:105240007CD90240FB21F93F7370032E8A19A33BDE
:10525000000040543163621A61B4D03DFB213941F2
:1052600083C8C96D305FE43F0000E03F3C1300009D
:10527000B81200009A120000182D4454FB21F93D89
:105280003326A611460B113C2DE9F0414F1E00EBD1
:10529000C7010446D1E9000115461E4637F0060253
:1052A0000DD02A463346FFF70DFB7F1E04EBC703E4
:1052B000D3E90023FFF75FFA37F00602F1D1022F9E
:1052C00025D0042F13D0062F18BFBDE8F0812A4641
:1052D0003346FFF7F7FAD4E90A23FFF74CFA2A46D8
:1052E0003346FFF7EFFAD4E90823FFF744FA2A46DA
:1052F0003346FFF7E7FAD4E90623FFF73CFA2A46DC
:105300003346FFF7DFFAD4E90423FFF734FA2A46DD
:105310003346FFF7D7FAD4E90223FFF72CFA2A46DF
:105320003346FFF7CFFAD4E90023BDE8F041FFF799
:1053300022BA00002DE9F04D04468CB0904821F0CF
:105340000047164698460D460991874206DA2046E0
:105350002946FFF791FD002800F0AE808948B84249
:105360001CDC09980028BCBF85F0004588F0004887
:10537000854A864B20462946FFF7A1FA04460D468A
:105380003246434682488349FFF796FA22462B4627
:10539000FFF7F1F9002604460D46B04622462B469B
:1053A00010461946FFF78EFA8B46824602460B4698
:1053B000FFF788FA0246089077480B4600910621CD
:1053C0007844FFF761FFCDE9031074480621784463
:1053D000009B089AFFF758FF52465B46FFF772FAA8
:1053E000CDE9051052465B4620462946FFF76AFA8A
:1053F00007910090DDE90310DDE90532FFF7BBF905
:10540000079B009AFFF75EFA32464346FFF7B3F96F
:1054100052465B46FFF756FA32464346FFF7ABF972
:1054200080460E465E4A5F4B07990098FFF74AFA9E
:1054300042463346FFF79FF982468B4622462B466B
:10544000FFF799F980464F480E46B84214985BDC46
:10545000FFF7DEFC0746424633460591FFF78BF91E
:10546000CDE901104246334610461946FFF72AFAA5
:10547000DDE90132FFF798FA52465B46FFF71CFA66
:1054800022462B46FFF71BFA0122FFF759FC3A464A
:10549000059BFFF714FA04460D460998022101EA1C
:1054A000A070C0F10100FFF7B3FC0CB022462B4600
:1054B000BDE8F04DFFF706BA1498401C384320436E
:1054C0000BD01498012812D00CB022462B46BDE810
:1054D000F04D00203449FFF767BA0CB025F00043C7
:1054E0002246BDE8F04D00203049FFF75DBA204666
:1054F0002946FFF7F1FC042808BF00F073F82046A6
:105500000CB02946BDE8F08D012802BF40460CB022
:10551000BDE8F08D00270B463A4620462946FFF7A6
:10552000CEF952465B46FFF7CAF904460D4642469D
:10553000334600201C49FFF737FA83463A4688462F
:1055400033461046FFF7BEF90022184BFFF713F958
:1055500006468A4622462B4638464146FFF7B2F9B0
:1055600032465346FFF707F95A464346FFF7AAF972
:105570000CB03A464346BDE8F04DFFF7FCB80000DA
:105580000000303E2894E53F182D4454FB21E93FAC
:10559000075C143326A6813C6C1000008E100000BE
:1055A000635555555555D53F0000F0BF0000F03FFD
:1055B0000022134610460149FFF7F6B90000F03FFC
:1055C0000122FFF7BDBBFFF7D6B8002213461046F5
:1055D0001146FFF7E9B940F2013200204FF0E041F7
:1055E000FFF7AEBB024A00201107FFF7A9BB00007E
:1055F00001FDFFFF02E008C8121F08C1002AFAD10E
:1056000070477047002001E001C1121F002AFBD142
:1056100070470000014908607047000078000020D2
:105620002DE9FF4F8BB09A460F460446002606E050
:1056300025280BD052460D999047641C761C207883
:105640000028F5D10FB03046BDE8F08F0025A946FF
:1056500001227D4900E0054314F8013F203B02FA96
:1056600003F00842F7D120782E2817D114F8010F43
:1056700045F004052A280ED06FF02F022078A0F103
:10568000300109290AD809EB890102EB410100EB3D
:105690000109641CF2E757F8049B641C20786C280D
:1056A0000DD004DC4C2812D06A2811D104E07428F3
:1056B0000DD07A280CD10AE045F4001507E0617896
:1056C00045F48015814202D1641C05F58015641CE7
:1056D000207869283ED006DC0028B3D063280BD0A0
:1056E000642804D136E0732810D075285CD0524667
:1056F0000D999047761CA5E017F8040B8DF8000073
:1057000000208DF80100E846012003E057F8048BE3
:105710004FF0FF3069074FF0000501D40AE06D1C1F
:105720004D450DDA8542FADB18F805100029F6D14F
:1057300006E06D1C8542FCDB18F805100029F8D145
:105740002E4404E018F8010B52460D9990476D1E47
:10575000F8D277E000200A90C5F302504FF00A0B10
:1057600002280CD001CFC117021E71F100020CDA21
:105770000023D0EB030063EB01012D2208E0FF1DA5
:1057800027F00707F7E80201EEE72A0504D52B22E8
:105790008DF82420012203E0EA070FD02022F7E74A
:1057A0000DF12008089218E000200A90C5F302507D
:1057B0004FF00A0B022803D001CF00210022EFE7AF
:1057C000FF1D27F00707F7E80201F7E75A460A9B93
:1057D000FFF7D0F9303208F8012D50EA0102F5D177
:1057E000ADEB080000F1200B680701D44FF0010970
:1057F000D94502DDA9EB0B0000E000208146002521
:1058000006E009A85246405D0D9990476D1C761C34
:1058100008988542F5DB04E0302052460D99904708
:10582000761CB9F10001A9F10109F5DC05E018F8D1
:10583000010B52460D999047761CBBF10001ABF16C
:10584000010BF4DC641CFAE6092801002DE9F04D97
:105850001D460C4698B0174621F0004123F0004346
:10586000002814BF4FF0010C4FF0000C0CEB440C5F
:10587000FE4A0CEB02064FEA620C66452BD33E0053
:1058800018BF012606EB45061644F94A964222D374
:10589000F84A53EA070C02D0944205D148B918B02F
:1058A00000201146BDE8F08D002808BF4FF0000C25
:1058B00001D04FF0010C0CEB440212F5001F0AD886
:1058C000002F14BF4FF0010C4FF0000C0CEB450201
:1058D00012F5001F07D918B03A462B462146BDE8FD
:1058E000F04DFFF770BE0022DFF88CA3002CB8BF8C
:1058F000534526DADFF884C36345A8BF022220DAC5
:10590000DFF870C39C451CDCDFF874C30CEB235C30
:10591000BCF1140F08DDCCF1340627FA06FC0CFAB2
:1059200006F6BE420DD108E05FB9CCF1140623FAA9
:1059300006FC0CFA06F69E4203D10CF00102C2F1FD
:10594000020251EA000C19D1002D17DA002C18BF01
:10595000022A01D0012A07D00220FFF75BFE18B00F
:10596000BDE8F04DFFF724BE0220FFF753FEFFF71E
:105970001FFE18B081F00041BDE8F08DB7F1000CBA
:105980006CD1534525D104F1804212F5801201BF3C
:1059900000280020B74918B008BFBDE8F08DB54811
:1059A000884207DC002DA1BF6046294618B0BDE83B
:1059B000F08D07E0281E05DA80F0004118B060463F
:1059C000BDE8F08DAF497944D1E9000118B0BDE8D8
:1059D000F08DDFF8A0C2634525D1002D1FDA19B183
:1059E000514512D1D8B909E0002840F0EC82A24A12
:1059F000214618B062F31E01BDE8F08D002021465B
:105A000018B060F31E01BDE8F08D08DA18B0234627
:105A1000BDE8F04D024600206146FEF7C5BF18B054
:105A20002146BDE8F08D514518DAB5F1804F0DD013
:105A3000A5F1005CBCF1FF5C10D1B4F1000C0DDBF2
:105A400018B06146BDE8F04D00F0ECBB234618B03D
:105A50000246BDE8F04D1946FEF734BF060024F0BB
:105A6000004C3BD1D9B1514533D1002C06DD002D7E
:105A7000A1BF0020514618B0BDE8F08D002C01DD1B
:105A8000002D1BDB002C13DA002D11DB012A4FF057
:105A9000000014BF78497C4918B0BDE8F08D022A97
:105AA00018BF002C0AD0012A08D1002C06DA0AE01F
:105AB000002CB8BF002D11DA012A04D0002018B044
:105AC0000146BDE8F08D18B000204FF00041BDE860
:105AD000F08DA1F14050B0F17F601AD0012000EBB1
